{
  "contracts/StockToChain2.sol": {
    "StockToChain2": {
      "abi": [
        {
          "inputs": [
            {
              "internalType": "address",
              "name": "_eurUsdPriceFeed",
              "type": "address"
            },
            {
              "internalType": "address",
              "name": "_polUsdPriceFeed",
              "type": "address"
            },
            {
              "internalType": "address",
              "name": "_companyWallet",
              "type": "address"
            },
            {
              "internalType": "address",
              "name": "_platformWallet",
              "type": "address"
            }
          ],
          "stateMutability": "nonpayable",
          "type": "constructor"
        },
        {
          "inputs": [
            {
              "internalType": "address",
              "name": "spender",
              "type": "address"
            },
            {
              "internalType": "uint256",
              "name": "allowance",
              "type": "uint256"
            },
            {
              "internalType": "uint256",
              "name": "needed",
              "type": "uint256"
            }
          ],
          "name": "ERC20InsufficientAllowance",
          "type": "error"
        },
        {
          "inputs": [
            {
              "internalType": "address",
              "name": "sender",
              "type": "address"
            },
            {
              "internalType": "uint256",
              "name": "balance",
              "type": "uint256"
            },
            {
              "internalType": "uint256",
              "name": "needed",
              "type": "uint256"
            }
          ],
          "name": "ERC20InsufficientBalance",
          "type": "error"
        },
        {
          "inputs": [
            {
              "internalType": "address",
              "name": "approver",
              "type": "address"
            }
          ],
          "name": "ERC20InvalidApprover",
          "type": "error"
        },
        {
          "inputs": [
            {
              "internalType": "address",
              "name": "receiver",
              "type": "address"
            }
          ],
          "name": "ERC20InvalidReceiver",
          "type": "error"
        },
        {
          "inputs": [
            {
              "internalType": "address",
              "name": "sender",
              "type": "address"
            }
          ],
          "name": "ERC20InvalidSender",
          "type": "error"
        },
        {
          "inputs": [
            {
              "internalType": "address",
              "name": "spender",
              "type": "address"
            }
          ],
          "name": "ERC20InvalidSpender",
          "type": "error"
        },
        {
          "inputs": [],
          "name": "EnforcedPause",
          "type": "error"
        },
        {
          "inputs": [],
          "name": "ExpectedPause",
          "type": "error"
        },
        {
          "inputs": [
            {
              "internalType": "address",
              "name": "owner",
              "type": "address"
            }
          ],
          "name": "OwnableInvalidOwner",
          "type": "error"
        },
        {
          "inputs": [
            {
              "internalType": "address",
              "name": "account",
              "type": "address"
            }
          ],
          "name": "OwnableUnauthorizedAccount",
          "type": "error"
        },
        {
          "inputs": [],
          "name": "ReentrancyGuardReentrantCall",
          "type": "error"
        },
        {
          "anonymous": false,
          "inputs": [
            {
              "indexed": true,
              "internalType": "address",
              "name": "owner",
              "type": "address"
            },
            {
              "indexed": true,
              "internalType": "address",
              "name": "spender",
              "type": "address"
            },
            {
              "indexed": false,
              "internalType": "uint256",
              "name": "value",
              "type": "uint256"
            }
          ],
          "name": "Approval",
          "type": "event"
        },
        {
          "anonymous": false,
          "inputs": [
            {
              "indexed": false,
              "internalType": "uint256",
              "name": "totalAmount",
              "type": "uint256"
            }
          ],
          "name": "BuybackExecuted",
          "type": "event"
        },
        {
          "anonymous": false,
          "inputs": [
            {
              "indexed": true,
              "internalType": "address",
              "name": "token",
              "type": "address"
            },
            {
              "indexed": false,
              "internalType": "uint256",
              "name": "amount",
              "type": "uint256"
            }
          ],
          "name": "EmergencyWithdraw",
          "type": "event"
        },
        {
          "anonymous": false,
          "inputs": [
            {
              "indexed": true,
              "internalType": "address",
              "name": "investor",
              "type": "address"
            }
          ],
          "name": "InvestorWhitelisted",
          "type": "event"
        },
        {
          "anonymous": false,
          "inputs": [
            {
              "indexed": true,
              "internalType": "address",
              "name": "previousOwner",
              "type": "address"
            },
            {
              "indexed": true,
              "internalType": "address",
              "name": "newOwner",
              "type": "address"
            }
          ],
          "name": "OwnershipTransferred",
          "type": "event"
        },
        {
          "anonymous": false,
          "inputs": [
            {
              "indexed": false,
              "internalType": "address",
              "name": "account",
              "type": "address"
            }
          ],
          "name": "Paused",
          "type": "event"
        },
        {
          "anonymous": false,
          "inputs": [
            {
              "indexed": true,
              "internalType": "address",
              "name": "investor",
              "type": "address"
            },
            {
              "indexed": false,
              "internalType": "uint256",
              "name": "amount",
              "type": "uint256"
            }
          ],
          "name": "ProfitsClaimed",
          "type": "event"
        },
        {
          "anonymous": false,
          "inputs": [
            {
              "indexed": false,
              "internalType": "uint256",
              "name": "totalAmount",
              "type": "uint256"
            }
          ],
          "name": "ProfitsDistributed",
          "type": "event"
        },
        {
          "anonymous": false,
          "inputs": [
            {
              "indexed": true,
              "internalType": "address",
              "name": "buyer",
              "type": "address"
            },
            {
              "indexed": false,
              "internalType": "uint256",
              "name": "amount",
              "type": "uint256"
            },
            {
              "indexed": false,
              "internalType": "uint256",
              "name": "price",
              "type": "uint256"
            }
          ],
          "name": "TokensPurchased",
          "type": "event"
        },
        {
          "anonymous": false,
          "inputs": [
            {
              "indexed": true,
              "internalType": "address",
              "name": "from",
              "type": "address"
            },
            {
              "indexed": true,
              "internalType": "address",
              "name": "to",
              "type": "address"
            },
            {
              "indexed": false,
              "internalType": "uint256",
              "name": "value",
              "type": "uint256"
            }
          ],
          "name": "Transfer",
          "type": "event"
        },
        {
          "anonymous": false,
          "inputs": [
            {
              "indexed": false,
              "internalType": "address",
              "name": "account",
              "type": "address"
            }
          ],
          "name": "Unpaused",
          "type": "event"
        },
        {
          "anonymous": false,
          "inputs": [
            {
              "indexed": false,
              "internalType": "enum StockToChain2.WorkflowStatus",
              "name": "newStatus",
              "type": "uint8"
            }
          ],
          "name": "WorkflowStatusChanged",
          "type": "event"
        },
        {
          "inputs": [],
          "name": "COMPANY_RATIO",
          "outputs": [
            {
              "internalType": "uint256",
              "name": "",
              "type": "uint256"
            }
          ],
          "stateMutability": "view",
          "type": "function"
        },
        {
          "inputs": [],
          "name": "PLATFORM_RATIO",
          "outputs": [
            {
              "internalType": "uint256",
              "name": "",
              "type": "uint256"
            }
          ],
          "stateMutability": "view",
          "type": "function"
        },
        {
          "inputs": [],
          "name": "PROFIT_CLAIM_PERIOD",
          "outputs": [
            {
              "internalType": "uint256",
              "name": "",
              "type": "uint256"
            }
          ],
          "stateMutability": "view",
          "type": "function"
        },
        {
          "inputs": [],
          "name": "TOKEN_HOLDERS_RATIO",
          "outputs": [
            {
              "internalType": "uint256",
              "name": "",
              "type": "uint256"
            }
          ],
          "stateMutability": "view",
          "type": "function"
        },
        {
          "inputs": [],
          "name": "TOKEN_PRICE_EUR",
          "outputs": [
            {
              "internalType": "uint256",
              "name": "",
              "type": "uint256"
            }
          ],
          "stateMutability": "view",
          "type": "function"
        },
        {
          "inputs": [],
          "name": "TOTAL_SUPPLY",
          "outputs": [
            {
              "internalType": "uint256",
              "name": "",
              "type": "uint256"
            }
          ],
          "stateMutability": "view",
          "type": "function"
        },
        {
          "inputs": [
            {
              "internalType": "address[]",
              "name": "addresses",
              "type": "address[]"
            }
          ],
          "name": "addToWhitelist",
          "outputs": [],
          "stateMutability": "nonpayable",
          "type": "function"
        },
        {
          "inputs": [
            {
              "internalType": "address",
              "name": "owner",
              "type": "address"
            },
            {
              "internalType": "address",
              "name": "spender",
              "type": "address"
            }
          ],
          "name": "allowance",
          "outputs": [
            {
              "internalType": "uint256",
              "name": "",
              "type": "uint256"
            }
          ],
          "stateMutability": "view",
          "type": "function"
        },
        {
          "inputs": [
            {
              "internalType": "address",
              "name": "spender",
              "type": "address"
            },
            {
              "internalType": "uint256",
              "name": "value",
              "type": "uint256"
            }
          ],
          "name": "approve",
          "outputs": [
            {
              "internalType": "bool",
              "name": "",
              "type": "bool"
            }
          ],
          "stateMutability": "nonpayable",
          "type": "function"
        },
        {
          "inputs": [
            {
              "internalType": "address",
              "name": "account",
              "type": "address"
            }
          ],
          "name": "balanceOf",
          "outputs": [
            {
              "internalType": "uint256",
              "name": "",
              "type": "uint256"
            }
          ],
          "stateMutability": "view",
          "type": "function"
        },
        {
          "inputs": [
            {
              "internalType": "uint256",
              "name": "amount",
              "type": "uint256"
            }
          ],
          "name": "buyTokens",
          "outputs": [],
          "stateMutability": "payable",
          "type": "function"
        },
        {
          "inputs": [],
          "name": "buybackByCompany",
          "outputs": [],
          "stateMutability": "payable",
          "type": "function"
        },
        {
          "inputs": [
            {
              "internalType": "address",
              "name": "investor",
              "type": "address"
            }
          ],
          "name": "calculateInvestorProfitShare",
          "outputs": [
            {
              "internalType": "uint256",
              "name": "",
              "type": "uint256"
            }
          ],
          "stateMutability": "view",
          "type": "function"
        },
        {
          "inputs": [],
          "name": "claimProfits",
          "outputs": [],
          "stateMutability": "nonpayable",
          "type": "function"
        },
        {
          "inputs": [],
          "name": "decimals",
          "outputs": [
            {
              "internalType": "uint8",
              "name": "",
              "type": "uint8"
            }
          ],
          "stateMutability": "view",
          "type": "function"
        },
        {
          "inputs": [],
          "name": "distributeProfits",
          "outputs": [],
          "stateMutability": "payable",
          "type": "function"
        },
        {
          "inputs": [
            {
              "internalType": "address",
              "name": "token",
              "type": "address"
            }
          ],
          "name": "emergencyWithdraw",
          "outputs": [],
          "stateMutability": "nonpayable",
          "type": "function"
        },
        {
          "inputs": [
            {
              "internalType": "uint256",
              "name": "amount",
              "type": "uint256"
            }
          ],
          "name": "getBuybackPriceInPOL",
          "outputs": [
            {
              "internalType": "uint256",
              "name": "",
              "type": "uint256"
            }
          ],
          "stateMutability": "view",
          "type": "function"
        },
        {
          "inputs": [
            {
              "internalType": "uint256",
              "name": "amount",
              "type": "uint256"
            }
          ],
          "name": "getCurrentPriceInPOL",
          "outputs": [
            {
              "internalType": "uint256",
              "name": "",
              "type": "uint256"
            }
          ],
          "stateMutability": "view",
          "type": "function"
        },
        {
          "inputs": [
            {
              "internalType": "address",
              "name": "investor",
              "type": "address"
            }
          ],
          "name": "getInvestmentSummary",
          "outputs": [
            {
              "internalType": "uint256",
              "name": "balance",
              "type": "uint256"
            },
            {
              "internalType": "uint256",
              "name": "unclaimedProfit",
              "type": "uint256"
            },
            {
              "internalType": "uint256",
              "name": "profitClaimTime",
              "type": "uint256"
            },
            {
              "internalType": "bool",
              "name": "isWhitelisted",
              "type": "bool"
            },
            {
              "internalType": "uint256",
              "name": "totalInvested",
              "type": "uint256"
            }
          ],
          "stateMutability": "view",
          "type": "function"
        },
        {
          "inputs": [
            {
              "internalType": "address",
              "name": "",
              "type": "address"
            }
          ],
          "name": "investors",
          "outputs": [
            {
              "internalType": "bool",
              "name": "whitelisted",
              "type": "bool"
            },
            {
              "internalType": "uint256",
              "name": "lastPurchaseTime",
              "type": "uint256"
            },
            {
              "internalType": "uint256",
              "name": "unclaimedProfits",
              "type": "uint256"
            },
            {
              "internalType": "uint256",
              "name": "totalInvested",
              "type": "uint256"
            },
            {
              "internalType": "uint256",
              "name": "totalTokens",
              "type": "uint256"
            }
          ],
          "stateMutability": "view",
          "type": "function"
        },
        {
          "inputs": [],
          "name": "name",
          "outputs": [
            {
              "internalType": "string",
              "name": "",
              "type": "string"
            }
          ],
          "stateMutability": "view",
          "type": "function"
        },
        {
          "inputs": [],
          "name": "owner",
          "outputs": [
            {
              "internalType": "address",
              "name": "",
              "type": "address"
            }
          ],
          "stateMutability": "view",
          "type": "function"
        },
        {
          "inputs": [],
          "name": "pause",
          "outputs": [],
          "stateMutability": "nonpayable",
          "type": "function"
        },
        {
          "inputs": [],
          "name": "paused",
          "outputs": [
            {
              "internalType": "bool",
              "name": "",
              "type": "bool"
            }
          ],
          "stateMutability": "view",
          "type": "function"
        },
        {
          "inputs": [],
          "name": "platformWallet",
          "outputs": [
            {
              "internalType": "address",
              "name": "",
              "type": "address"
            }
          ],
          "stateMutability": "view",
          "type": "function"
        },
        {
          "inputs": [],
          "name": "renounceOwnership",
          "outputs": [],
          "stateMutability": "nonpayable",
          "type": "function"
        },
        {
          "inputs": [],
          "name": "symbol",
          "outputs": [
            {
              "internalType": "string",
              "name": "",
              "type": "string"
            }
          ],
          "stateMutability": "view",
          "type": "function"
        },
        {
          "inputs": [],
          "name": "totalDistributedProfits",
          "outputs": [
            {
              "internalType": "uint256",
              "name": "",
              "type": "uint256"
            }
          ],
          "stateMutability": "view",
          "type": "function"
        },
        {
          "inputs": [],
          "name": "totalSupply",
          "outputs": [
            {
              "internalType": "uint256",
              "name": "",
              "type": "uint256"
            }
          ],
          "stateMutability": "view",
          "type": "function"
        },
        {
          "inputs": [
            {
              "internalType": "address",
              "name": "to",
              "type": "address"
            },
            {
              "internalType": "uint256",
              "name": "value",
              "type": "uint256"
            }
          ],
          "name": "transfer",
          "outputs": [
            {
              "internalType": "bool",
              "name": "",
              "type": "bool"
            }
          ],
          "stateMutability": "nonpayable",
          "type": "function"
        },
        {
          "inputs": [
            {
              "internalType": "address",
              "name": "from",
              "type": "address"
            },
            {
              "internalType": "address",
              "name": "to",
              "type": "address"
            },
            {
              "internalType": "uint256",
              "name": "value",
              "type": "uint256"
            }
          ],
          "name": "transferFrom",
          "outputs": [
            {
              "internalType": "bool",
              "name": "",
              "type": "bool"
            }
          ],
          "stateMutability": "nonpayable",
          "type": "function"
        },
        {
          "inputs": [
            {
              "internalType": "address",
              "name": "newOwner",
              "type": "address"
            }
          ],
          "name": "transferOwnership",
          "outputs": [],
          "stateMutability": "nonpayable",
          "type": "function"
        },
        {
          "inputs": [],
          "name": "unpause",
          "outputs": [],
          "stateMutability": "nonpayable",
          "type": "function"
        },
        {
          "inputs": [
            {
              "internalType": "enum StockToChain2.WorkflowStatus",
              "name": "newStatus",
              "type": "uint8"
            }
          ],
          "name": "updateWorkflowStatus",
          "outputs": [],
          "stateMutability": "nonpayable",
          "type": "function"
        },
        {
          "inputs": [],
          "name": "workflowStatus",
          "outputs": [
            {
              "internalType": "enum StockToChain2.WorkflowStatus",
              "name": "",
              "type": "uint8"
            }
          ],
          "stateMutability": "view",
          "type": "function"
        }
      ],
      "evm": {
        "bytecode": {
          "linkReferences": {},
          "object": "60e060405234801561001057600080fd5b506040516126d33803806126d383398101604081905261002f916102d0565b816040518060400160405280601281526020017129ba37b1b5aa37a1b430b4b7102a37b5b2b760711b8152506040518060400160405280600481526020016314d510d560e21b815250816003908161008791906103c3565b50600461009482826103c3565b5050506001600160a01b0381166100c657604051631e4fbdf760e01b8152600060048201526024015b60405180910390fd5b6100cf81610262565b506005805460ff60a01b1916905560016006556001600160a01b0384166101385760405162461bcd60e51b815260206004820152601a60248201527f496e76616c6964204555522f555344207072696365206665656400000000000060448201526064016100bd565b6001600160a01b03831661018e5760405162461bcd60e51b815260206004820152601a60248201527f496e76616c696420504f4c2f555344207072696365206665656400000000000060448201526064016100bd565b6001600160a01b0382166101e45760405162461bcd60e51b815260206004820152601660248201527f496e76616c696420636f6d70616e792077616c6c65740000000000000000000060448201526064016100bd565b6001600160a01b03811661023a5760405162461bcd60e51b815260206004820152601760248201527f496e76616c696420706c6174666f726d2077616c6c657400000000000000000060448201526064016100bd565b6001600160a01b0393841660805291831660a052501660c0526007805460ff19169055610481565b600580546001600160a01b038381166001600160a01b0319831681179093556040519116919082907f8be0079c531659141344cd1fd0a4f28419497f9722a3daafe3b4186f6b6457e090600090a35050565b80516001600160a01b03811681146102cb57600080fd5b919050565b600080600080608085870312156102e657600080fd5b6102ef856102b4565b93506102fd602086016102b4565b925061030b604086016102b4565b9150610319606086016102b4565b905092959194509250565b634e487b7160e01b600052604160045260246000fd5b600181811c9082168061034e57607f821691505b60208210810361036e57634e487b7160e01b600052602260045260246000fd5b50919050565b601f8211156103be57806000526020600020601f840160051c8101602085101561039b5750805b601f840160051c820191505b818110156103bb57600081556001016103a7565b50505b505050565b81516001600160401b038111156103dc576103dc610324565b6103f0816103ea845461033a565b84610374565b6020601f821160018114610424576000831561040c5750848201515b600019600385901b1c1916600184901b1784556103bb565b600084815260208120601f198516915b828110156104545787850151825560209485019460019092019101610434565b50848210156104725786840151600019600387901b60f8161c191681555b50505050600190811b01905550565b60805160a05160c05161221c6104b7600039600081816106cb015261097f01526000610dff01526000610d75015261221c6000f3fe60806040526004361061020f5760003560e01c80637f64978311610118578063a9059cbb116100a0578063d101d08b1161006f578063d101d08b1461061d578063dd62ed3e14610633578063eab8a0eb14610679578063f2fde38b14610699578063fa2af9da146106b957600080fd5b8063a9059cbb146105bf578063a93ad247146105df578063c3967ca5146105f5578063c8372a12146105fd57600080fd5b8063902d55a5116100e7578063902d55a51461053a57806390e497551461055857806395d89b411461056e5780639df51b8914610583578063a1edffa21461059857600080fd5b80637f649783146104b357806383a9c806146104d35780638456cb59146104f35780638da5cb5b1461050857600080fd5b80633f4ba83a1161019b578063699901f81161016a578063699901f8146103b05780636f7bc9be146103d05780636ff1c9bc1461044857806370a0823114610468578063715018a61461049e57600080fd5b80633f4ba83a14610347578063406d70541461035c5780634d4b8c24146103795780635c975abb1461039157600080fd5b806318160ddd116101e257806318160ddd146102d95780631fee5ccd146102ee57806323b872dd146102f8578063313ce567146103185780633610724e1461033457600080fd5b80630434c8c21461021457806306fdde0314610263578063095ea7b314610285578063177df163146102b5575b600080fd5b34801561022057600080fd5b5061023461022f366004611d8b565b6106ed565b6040805195865260208601949094529284019190915215156060830152608082015260a0015b60405180910390f35b34801561026f57600080fd5b5061027861077b565b60405161025a9190611dad565b34801561029157600080fd5b506102a56102a0366004611dfb565b61080d565b604051901515815260200161025a565b3480156102c157600080fd5b506102cb60095481565b60405190815260200161025a565b3480156102e557600080fd5b506002546102cb565b6102f6610827565b005b34801561030457600080fd5b506102a5610313366004611e25565b610a18565b34801561032457600080fd5b506040516012815260200161025a565b6102f6610342366004611e62565b610a3c565b34801561035357600080fd5b506102f6610d5e565b34801561036857600080fd5b506102cb6802b5e3af16b188000081565b34801561038557600080fd5b506102cb630784ce0081565b34801561039d57600080fd5b50600554600160a01b900460ff166102a5565b3480156103bc57600080fd5b506102cb6103cb366004611e62565b610d70565b3480156103dc57600080fd5b5061041e6103eb366004611d8b565b6008602052600090815260409020805460018201546002830154600384015460049094015460ff90931693919290919085565b6040805195151586526020860194909452928401919091526060830152608082015260a00161025a565b34801561045457600080fd5b506102f6610463366004611d8b565b610f50565b34801561047457600080fd5b506102cb610483366004611d8b565b6001600160a01b031660009081526020819052604090205490565b3480156104aa57600080fd5b506102f66110ff565b3480156104bf57600080fd5b506102f66104ce366004611e7b565b611111565b3480156104df57600080fd5b506102f66104ee366004611ef2565b6111e2565b3480156104ff57600080fd5b506102f6611347565b34801561051457600080fd5b506005546001600160a01b03165b6040516001600160a01b03909116815260200161025a565b34801561054657600080fd5b506102cb6911c9a62d04ed0c80000081565b34801561056457600080fd5b506102cb6103e881565b34801561057a57600080fd5b50610278611357565b34801561058f57600080fd5b506102f6611366565b3480156105a457600080fd5b506007546105b29060ff1681565b60405161025a9190611f29565b3480156105cb57600080fd5b506102a56105da366004611dfb565b6114bb565b3480156105eb57600080fd5b506102cb610bb881565b6102f66114c9565b34801561060957600080fd5b506102cb610618366004611d8b565b6117d5565b34801561062957600080fd5b506102cb61177081565b34801561063f57600080fd5b506102cb61064e366004611f51565b6001600160a01b03918216600090815260016020908152604080832093909416825291909152205490565b34801561068557600080fd5b506102cb610694366004611e62565b611839565b3480156106a557600080fd5b506102f66106b4366004611d8b565b611844565b3480156106c557600080fd5b506105227f000000000000000000000000000000000000000000000000000000000000000081565b6001600160a01b0381166000908152600860209081526040808320815160a081018352815460ff16151581526001820154938101849052600282015492810183905260038201546060820152600490910154608082018190528493849384938493909290919061076290630784ce0090611f9a565b8351606090940151929a91995097509195509350915050565b60606003805461078a90611fad565b80601f01602080910402602001604051908101604052809291908181526020018280546107b690611fad565b80156108035780601f106107d857610100808354040283529160200191610803565b820191906000526020600020905b8154815290600101906020018083116107e657829003601f168201915b5050505050905090565b60003361081b81858561187f565b60019150505b92915050565b61082f61188c565b6108376118b9565b6000341161088c5760405162461bcd60e51b815260206004820152601860248201527f4e6f2070726f6669747320746f2064697374726962757465000000000000000060448201526064015b60405180910390fd5b60006040518060600160405280612710611770346108aa9190611fe7565b6108b49190611ffe565b81526020016127106108c86103e834611fe7565b6108d29190611ffe565b81526020016127106108e66103e834611fe7565b6108f09190611ffe565b6127106108ff61177034611fe7565b6109099190611ffe565b6109139034612020565b61091d9190612020565b905290506109336005546001600160a01b031690565b81516040516001600160a01b03929092169181156108fc0291906000818181858888f1935050505015801561096c573d6000803e3d6000fd5b5060208101516040516001600160a01b037f0000000000000000000000000000000000000000000000000000000000000000169180156108fc02916000818181858888f193505050501580156109c6573d6000803e3d6000fd5b508060400151600960008282546109dd9190611f9a565b90915550506040513481527f4d074af92473714a50d24a44926bf6ce3944f7774167533a0bc560c1c2e519099060200160405180910390a150565b600033610a268582856118e4565b610a31858585611963565b506001949350505050565b610a446118b9565b600160075460ff166003811115610a5d57610a5d611f13565b14610a9f5760405162461bcd60e51b815260206004820152601260248201527153616c65206973206e6f742061637469766560701b6044820152606401610883565b3360009081526008602052604090205460ff16610afe5760405162461bcd60e51b815260206004820152601760248201527f41646472657373206e6f742077686974656c69737465640000000000000000006044820152606401610883565b610b066119c2565b60008111610b565760405162461bcd60e51b815260206004820152601d60248201527f416d6f756e74206d7573742062652067726561746572207468616e20300000006044820152606401610883565b6911c9a62d04ed0c80000081610b6b60025490565b610b759190611f9a565b1115610bba5760405162461bcd60e51b81526020600482015260146024820152734578636565647320746f74616c20737570706c7960601b6044820152606401610883565b6000610bc582610d70565b905080341015610c0e5760405162461bcd60e51b8152602060048201526014602482015273125b9cdd59999a58da595b9d081c185e5b595b9d60621b6044820152606401610883565b610c1833836119ec565b33600090815260086020526040812042600182015560038101805491928492610c42908490611f9a565b9250508190555082816004016000828254610c5d9190611f9a565b9091555050336000908152600b602052604090205460ff16610cd457600a805460018181019092557fc65a7bb8d6351c1cf70c95a316cc6a92839c986682d98bc35f958f4883f9d2a80180546001600160a01b031916339081179091556000908152600b60205260409020805460ff191690911790555b81341115610d1457336108fc610cea8434612020565b6040518115909202916000818181858888f19350505050158015610d12573d6000803e3d6000fd5b505b604080518481526020810184905233917f8fafebcaf9d154343dad25669bfa277f4fbacd7ac6b0c4fed522580e040a0f33910160405180910390a25050610d5b6001600655565b50565b610d6661188c565b610d6e611a26565b565b6000807f00000000000000000000000000000000000000000000000000000000000000006001600160a01b031663feaf968c6040518163ffffffff1660e01b815260040160a060405180830381865afa158015610dd1573d6000803e3d6000fd5b505050506040513d601f19601f82011682018060405250810190610df5919061204d565b50505091505060007f00000000000000000000000000000000000000000000000000000000000000006001600160a01b031663feaf968c6040518163ffffffff1660e01b815260040160a060405180830381865afa158015610e5b573d6000803e3d6000fd5b505050506040513d601f19601f82011682018060405250810190610e7f919061204d565b505050915050600082138015610e955750600081135b610ee15760405162461bcd60e51b815260206004820152601760248201527f496e76616c6964207072696365206665656420646174610000000000000000006044820152606401610883565b6000670de0b6b3a7640000610eff6802b5e3af16b188000087611fe7565b610f099190611ffe565b9050610f176008600a612186565b610f219083611fe7565b610f2b8483611fe7565b610f3d90670de0b6b3a7640000611fe7565b610f479190611ffe565b95945050505050565b610f5861188c565b60006001600160a01b038216610fba575047610f7c6005546001600160a01b031690565b6001600160a01b03166108fc829081150290604051600060405180830381858888f19350505050158015610fb4573d6000803e3d6000fd5b506110b8565b6040516370a0823160e01b81523060048201526001600160a01b038316906370a0823190602401602060405180830381865afa158015610ffe573d6000803e3d6000fd5b505050506040513d601f19601f820116820180604052508101906110229190612195565b9050816001600160a01b031663a9059cbb6110456005546001600160a01b031690565b6040516001600160e01b031960e084901b1681526001600160a01b039091166004820152602481018490526044016020604051808303816000875af1158015611092573d6000803e3d6000fd5b505050506040513d601f19601f820116820180604052508101906110b691906121ae565b505b816001600160a01b03167f5fafa99d0643513820be26656b45130b01e1c03062e1266bf36f88cbd3bd9695826040516110f391815260200190565b60405180910390a25050565b61110761188c565b610d6e6000611a7b565b61111961188c565b60005b818110156111dd5760016008600085858581811061113c5761113c6121d0565b90506020020160208101906111519190611d8b565b6001600160a01b031681526020810191909152604001600020805460ff191691151591909117905582828281811061118b5761118b6121d0565b90506020020160208101906111a09190611d8b565b6001600160a01b03167fded95a7461813082c997645a1b5e07eb321073a96b7c65dc7f793625383f896e60405160405180910390a260010161111c565b505050565b6111ea61188c565b80600060075460ff16600381111561120457611204611f13565b1480156112225750600181600381111561122057611220611f13565b145b8061125f5750600160075460ff16600381111561124157611241611f13565b14801561125f5750600281600381111561125d5761125d611f13565b145b8061129c5750600260075460ff16600381111561127e5761127e611f13565b14801561129c5750600381600381111561129a5761129a611f13565b145b6112e85760405162461bcd60e51b815260206004820152601b60248201527f496e76616c696420776f726b666c6f77207472616e736974696f6e00000000006044820152606401610883565b6007805483919060ff1916600183600381111561130757611307611f13565b02179055507fb8b04218a34924533c0cb5f3c199a94e5a3534e8bcf1e27ff26ab5e8f0dd2a6c8260405161133b9190611f29565b60405180910390a15050565b61134f61188c565b610d6e611acd565b60606004805461078a90611fad565b61136e6118b9565b3360009081526008602052604090206001015461139090630784ce0090611f9a565b4210156113f15760405162461bcd60e51b815260206004820152602960248201527f4d75737420776169742034207965617273206265666f726520636c61696d696e604482015268672070726f6669747360b81b6064820152608401610883565b60006113fc336117d5565b9050600081116114445760405162461bcd60e51b81526020600482015260136024820152724e6f2070726f6669747320746f20636c61696d60681b6044820152606401610883565b336000818152600860205260408082206002018290555183156108fc0291849190818181858888f19350505050158015611482573d6000803e3d6000fd5b5060405181815233907f2d1fbc422572e2217ac1c97143f481527c59dcbaf7fc6b9d1df8a0e2326535669060200160405180910390a250565b60003361081b818585611963565b6114d161188c565b6114d96118b9565b600034116115205760405162461bcd60e51b81526020600482015260146024820152734e6f2066756e647320666f72206275796261636b60601b6044820152606401610883565b600360075460ff16600381111561153957611539611f13565b1461157b5760405162461bcd60e51b81526020600482015260126024820152714275796261636b206e6f742061637469766560701b6044820152606401610883565b600061158660025490565b9050600081116115d05760405162461bcd60e51b81526020600482015260156024820152744e6f20746f6b656e7320746f20627579206261636b60581b6044820152606401610883565b60006115db82611839565b90508034101561162d5760405162461bcd60e51b815260206004820152601e60248201527f496e73756666696369656e742066756e647320666f72206275796261636b00006044820152606401610883565b60006116398234612020565b90506000805b600a548110156116c0576000600a828154811061165e5761165e6121d0565b60009182526020808320909101546001600160a01b03168083526008909152604090912060040154909150156116b7576001600160a01b0381166000908152600860205260409020600301546116b49084611f9a565b92505b5060010161163f565b5060005b600a54811015611791576000600a82815481106116e3576116e36121d0565b60009182526020808320909101546001600160a01b0316808352600890915260409091206004015490915015611788576001600160a01b038116600090815260086020526040812060030154849061173c908790611fe7565b6117469190611ffe565b90508015611786576040516001600160a01b0383169082156108fc029083906000818181858888f19350505050158015611784573d6000803e3d6000fd5b505b505b506001016116c4565b5061179c3085611b10565b6040518381527fd2c5a6b66fbd4c28346666274dd95b77fd31d5c730deb119439b2b5482deafc99060200160405180910390a150505050565b6001600160a01b03811660009081526008602052604081206004015481036117ff57506000919050565b6002546001600160a01b0383166000908152600860205260409020600481015460029091015461182f9190611fe7565b6108219190611ffe565b600061082182610d70565b61184c61188c565b6001600160a01b03811661187657604051631e4fbdf760e01b815260006004820152602401610883565b610d5b81611a7b565b6111dd8383836001611b46565b6005546001600160a01b03163314610d6e5760405163118cdaa760e01b8152336004820152602401610883565b600554600160a01b900460ff1615610d6e5760405163d93c066560e01b815260040160405180910390fd5b6001600160a01b0383811660009081526001602090815260408083209386168352929052205460001981101561195d578181101561194e57604051637dc7a0d960e11b81526001600160a01b03841660048201526024810182905260448101839052606401610883565b61195d84848484036000611b46565b50505050565b6001600160a01b03831661198d57604051634b637e8f60e11b815260006004820152602401610883565b6001600160a01b0382166119b75760405163ec442f0560e01b815260006004820152602401610883565b6111dd838383611c1b565b6002600654036119e557604051633ee5aeb560e01b815260040160405180910390fd5b6002600655565b6001600160a01b038216611a165760405163ec442f0560e01b815260006004820152602401610883565b611a2260008383611c1b565b5050565b611a2e611d45565b6005805460ff60a01b191690557f5db9ee0a495bf2e6ff9c91a7834c1ba4fdd244a5e8aa4e537bd38aeae4b073aa335b6040516001600160a01b03909116815260200160405180910390a1565b600580546001600160a01b038381166001600160a01b0319831681179093556040519116919082907f8be0079c531659141344cd1fd0a4f28419497f9722a3daafe3b4186f6b6457e090600090a35050565b611ad56118b9565b6005805460ff60a01b1916600160a01b1790557f62e78cea01bee320cd4e420270b5ea74000d11b0c9f74754ebdbfc544b05a258611a5e3390565b6001600160a01b038216611b3a57604051634b637e8f60e11b815260006004820152602401610883565b611a2282600083611c1b565b6001600160a01b038416611b705760405163e602df0560e01b815260006004820152602401610883565b6001600160a01b038316611b9a57604051634a1406b160e11b815260006004820152602401610883565b6001600160a01b038085166000908152600160209081526040808320938716835292905220829055801561195d57826001600160a01b0316846001600160a01b03167f8c5be1e5ebec7d5bd14f71427d1e84f3dd0314c0f7b2291e5b200ac8c7c3b92584604051611c0d91815260200190565b60405180910390a350505050565b6001600160a01b038316611c46578060026000828254611c3b9190611f9a565b90915550611cb89050565b6001600160a01b03831660009081526020819052604090205481811015611c995760405163391434e360e21b81526001600160a01b03851660048201526024810182905260448101839052606401610883565b6001600160a01b03841660009081526020819052604090209082900390555b6001600160a01b038216611cd457600280548290039055611cf3565b6001600160a01b03821660009081526020819052604090208054820190555b816001600160a01b0316836001600160a01b03167fddf252ad1be2c89b69c2b068fc378daa952ba7f163c4a11628f55a4df523b3ef83604051611d3891815260200190565b60405180910390a3505050565b600554600160a01b900460ff16610d6e57604051638dfc202b60e01b815260040160405180910390fd5b80356001600160a01b0381168114611d8657600080fd5b919050565b600060208284031215611d9d57600080fd5b611da682611d6f565b9392505050565b602081526000825180602084015260005b81811015611ddb5760208186018101516040868401015201611dbe565b506000604082850101526040601f19601f83011684010191505092915050565b60008060408385031215611e0e57600080fd5b611e1783611d6f565b946020939093013593505050565b600080600060608486031215611e3a57600080fd5b611e4384611d6f565b9250611e5160208501611d6f565b929592945050506040919091013590565b600060208284031215611e7457600080fd5b5035919050565b60008060208385031215611e8e57600080fd5b823567ffffffffffffffff811115611ea557600080fd5b8301601f81018513611eb657600080fd5b803567ffffffffffffffff811115611ecd57600080fd5b8560208260051b8401011115611ee257600080fd5b6020919091019590945092505050565b600060208284031215611f0457600080fd5b813560048110611da657600080fd5b634e487b7160e01b600052602160045260246000fd5b6020810160048310611f4b57634e487b7160e01b600052602160045260246000fd5b91905290565b60008060408385031215611f6457600080fd5b611f6d83611d6f565b9150611f7b60208401611d6f565b90509250929050565b634e487b7160e01b600052601160045260246000fd5b8082018082111561082157610821611f84565b600181811c90821680611fc157607f821691505b602082108103611fe157634e487b7160e01b600052602260045260246000fd5b50919050565b808202811582820484141761082157610821611f84565b60008261201b57634e487b7160e01b600052601260045260246000fd5b500490565b8181038181111561082157610821611f84565b805169ffffffffffffffffffff81168114611d8657600080fd5b600080600080600060a0868803121561206557600080fd5b61206e86612033565b6020870151604088015160608901519297509095509350915061209360808701612033565b90509295509295909350565b6001815b60018411156120da578085048111156120be576120be611f84565b60018416156120cc57908102905b60019390931c9280026120a3565b935093915050565b6000826120f157506001610821565b816120fe57506000610821565b8160018114612114576002811461211e5761213a565b6001915050610821565b60ff84111561212f5761212f611f84565b50506001821b610821565b5060208310610133831016604e8410600b841016171561215d575081810a610821565b61216a600019848461209f565b806000190482111561217e5761217e611f84565b029392505050565b6000611da660ff8416836120e2565b6000602082840312156121a757600080fd5b5051919050565b6000602082840312156121c057600080fd5b81518015158114611da657600080fd5b634e487b7160e01b600052603260045260246000fdfea2646970667358221220d0431824cbab7759a983adfaff07899c34a64526e2cea4dc0b70beb21fad459664736f6c634300081c0033",
          "opcodes": "PUSH1 0xE0 PUSH1 0x40 MSTORE CALLVALUE DUP1 ISZERO PUSH2 0x10 JUMPI PUSH1 0x0 DUP1 REVERT JUMPDEST POP PUSH1 0x40 MLOAD PUSH2 0x26D3 CODESIZE SUB DUP1 PUSH2 0x26D3 DUP4 CODECOPY DUP2 ADD PUSH1 0x40 DUP2 SWAP1 MSTORE PUSH2 0x2F SWAP2 PUSH2 0x2D0 JUMP JUMPDEST DUP2 PUSH1 0x40 MLOAD DUP1 PUSH1 0x40 ADD PUSH1 0x40 MSTORE DUP1 PUSH1 0x12 DUP2 MSTORE PUSH1 0x20 ADD PUSH18 0x29BA37B1B5AA37A1B430B4B7102A37B5B2B7 PUSH1 0x71 SHL DUP2 MSTORE POP PUSH1 0x40 MLOAD DUP1 PUSH1 0x40 ADD PUSH1 0x40 MSTORE DUP1 PUSH1 0x4 DUP2 MSTORE PUSH1 0x20 ADD PUSH4 0x14D510D5 PUSH1 0xE2 SHL DUP2 MSTORE POP DUP2 PUSH1 0x3 SWAP1 DUP2 PUSH2 0x87 SWAP2 SWAP1 PUSH2 0x3C3 JUMP JUMPDEST POP PUSH1 0x4 PUSH2 0x94 DUP3 DUP3 PUSH2 0x3C3 JUMP JUMPDEST POP POP POP PUSH1 0x1 PUSH1 0x1 PUSH1 0xA0 SHL SUB DUP2 AND PUSH2 0xC6 JUMPI PUSH1 0x40 MLOAD PUSH4 0x1E4FBDF7 PUSH1 0xE0 SHL DUP2 MSTORE PUSH1 0x0 PUSH1 0x4 DUP3 ADD MSTORE PUSH1 0x24 ADD JUMPDEST PUSH1 0x40 MLOAD DUP1 SWAP2 SUB SWAP1 REVERT JUMPDEST PUSH2 0xCF DUP2 PUSH2 0x262 JUMP JUMPDEST POP PUSH1 0x5 DUP1 SLOAD PUSH1 0xFF PUSH1 0xA0 SHL NOT AND SWAP1 SSTORE PUSH1 0x1 PUSH1 0x6 SSTORE PUSH1 0x1 PUSH1 0x1 PUSH1 0xA0 SHL SUB DUP5 AND PUSH2 0x138 JUMPI PUSH1 0x40 MLOAD PUSH3 0x461BCD PUSH1 0xE5 SHL DUP2 MSTORE PUSH1 0x20 PUSH1 0x4 DUP3 ADD MSTORE PUSH1 0x1A PUSH1 0x24 DUP3 ADD MSTORE PUSH32 0x496E76616C6964204555522F5553442070726963652066656564000000000000 PUSH1 0x44 DUP3 ADD MSTORE PUSH1 0x64 ADD PUSH2 0xBD JUMP JUMPDEST PUSH1 0x1 PUSH1 0x1 PUSH1 0xA0 SHL SUB DUP4 AND PUSH2 0x18E JUMPI PUSH1 0x40 MLOAD PUSH3 0x461BCD PUSH1 0xE5 SHL DUP2 MSTORE PUSH1 0x20 PUSH1 0x4 DUP3 ADD MSTORE PUSH1 0x1A PUSH1 0x24 DUP3 ADD MSTORE PUSH32 0x496E76616C696420504F4C2F5553442070726963652066656564000000000000 PUSH1 0x44 DUP3 ADD MSTORE PUSH1 0x64 ADD PUSH2 0xBD JUMP JUMPDEST PUSH1 0x1 PUSH1 0x1 PUSH1 0xA0 SHL SUB DUP3 AND PUSH2 0x1E4 JUMPI PUSH1 0x40 MLOAD PUSH3 0x461BCD PUSH1 0xE5 SHL DUP2 MSTORE PUSH1 0x20 PUSH1 0x4 DUP3 ADD MSTORE PUSH1 0x16 PUSH1 0x24 DUP3 ADD MSTORE PUSH32 0x496E76616C696420636F6D70616E792077616C6C657400000000000000000000 PUSH1 0x44 DUP3 ADD MSTORE PUSH1 0x64 ADD PUSH2 0xBD JUMP JUMPDEST PUSH1 0x1 PUSH1 0x1 PUSH1 0xA0 SHL SUB DUP2 AND PUSH2 0x23A JUMPI PUSH1 0x40 MLOAD PUSH3 0x461BCD PUSH1 0xE5 SHL DUP2 MSTORE PUSH1 0x20 PUSH1 0x4 DUP3 ADD MSTORE PUSH1 0x17 PUSH1 0x24 DUP3 ADD MSTORE PUSH32 0x496E76616C696420706C6174666F726D2077616C6C6574000000000000000000 PUSH1 0x44 DUP3 ADD MSTORE PUSH1 0x64 ADD PUSH2 0xBD JUMP JUMPDEST PUSH1 0x1 PUSH1 0x1 PUSH1 0xA0 SHL SUB SWAP4 DUP5 AND PUSH1 0x80 MSTORE SWAP2 DUP4 AND PUSH1 0xA0 MSTORE POP AND PUSH1 0xC0 MSTORE PUSH1 0x7 DUP1 SLOAD PUSH1 0xFF NOT AND SWAP1 SSTORE PUSH2 0x481 JUMP JUMPDEST PUSH1 0x5 DUP1 SLOAD PUSH1 0x1 PUSH1 0x1 PUSH1 0xA0 SHL SUB DUP4 DUP2 AND PUSH1 0x1 PUSH1 0x1 PUSH1 0xA0 SHL SUB NOT DUP4 AND DUP2 OR SWAP1 SWAP4 SSTORE PUSH1 0x40 MLOAD SWAP2 AND SWAP2 SWAP1 DUP3 SWAP1 PUSH32 0x8BE0079C531659141344CD1FD0A4F28419497F9722A3DAAFE3B4186F6B6457E0 SWAP1 PUSH1 0x0 SWAP1 LOG3 POP POP JUMP JUMPDEST DUP1 MLOAD PUSH1 0x1 PUSH1 0x1 PUSH1 0xA0 SHL SUB DUP2 AND DUP2 EQ PUSH2 0x2CB JUMPI PUSH1 0x0 DUP1 REVERT JUMPDEST SWAP2 SWAP1 POP JUMP JUMPDEST PUSH1 0x0 DUP1 PUSH1 0x0 DUP1 PUSH1 0x80 DUP6 DUP8 SUB SLT ISZERO PUSH2 0x2E6 JUMPI PUSH1 0x0 DUP1 REVERT JUMPDEST PUSH2 0x2EF DUP6 PUSH2 0x2B4 JUMP JUMPDEST SWAP4 POP PUSH2 0x2FD PUSH1 0x20 DUP7 ADD PUSH2 0x2B4 JUMP JUMPDEST SWAP3 POP PUSH2 0x30B PUSH1 0x40 DUP7 ADD PUSH2 0x2B4 JUMP JUMPDEST SWAP2 POP PUSH2 0x319 PUSH1 0x60 DUP7 ADD PUSH2 0x2B4 JUMP JUMPDEST SWAP1 POP SWAP3 SWAP6 SWAP2 SWAP5 POP SWAP3 POP JUMP JUMPDEST PUSH4 0x4E487B71 PUSH1 0xE0 SHL PUSH1 0x0 MSTORE PUSH1 0x41 PUSH1 0x4 MSTORE PUSH1 0x24 PUSH1 0x0 REVERT JUMPDEST PUSH1 0x1 DUP2 DUP2 SHR SWAP1 DUP3 AND DUP1 PUSH2 0x34E JUMPI PUSH1 0x7F DUP3 AND SWAP2 POP JUMPDEST PUSH1 0x20 DUP3 LT DUP2 SUB PUSH2 0x36E JUMPI PUSH4 0x4E487B71 PUSH1 0xE0 SHL PUSH1 0x0 MSTORE PUSH1 0x22 PUSH1 0x4 MSTORE PUSH1 0x24 PUSH1 0x0 REVERT JUMPDEST POP SWAP2 SWAP1 POP JUMP JUMPDEST PUSH1 0x1F DUP3 GT ISZERO PUSH2 0x3BE JUMPI DUP1 PUSH1 0x0 MSTORE PUSH1 0x20 PUSH1 0x0 KECCAK256 PUSH1 0x1F DUP5 ADD PUSH1 0x5 SHR DUP2 ADD PUSH1 0x20 DUP6 LT ISZERO PUSH2 0x39B JUMPI POP DUP1 JUMPDEST PUSH1 0x1F DUP5 ADD PUSH1 0x5 SHR DUP3 ADD SWAP2 POP JUMPDEST DUP2 DUP2 LT ISZERO PUSH2 0x3BB JUMPI PUSH1 0x0 DUP2 SSTORE PUSH1 0x1 ADD PUSH2 0x3A7 JUMP JUMPDEST POP POP JUMPDEST POP POP POP JUMP JUMPDEST DUP2 MLOAD PUSH1 0x1 PUSH1 0x1 PUSH1 0x40 SHL SUB DUP2 GT ISZERO PUSH2 0x3DC JUMPI PUSH2 0x3DC PUSH2 0x324 JUMP JUMPDEST PUSH2 0x3F0 DUP2 PUSH2 0x3EA DUP5 SLOAD PUSH2 0x33A JUMP JUMPDEST DUP5 PUSH2 0x374 JUMP JUMPDEST PUSH1 0x20 PUSH1 0x1F DUP3 GT PUSH1 0x1 DUP2 EQ PUSH2 0x424 JUMPI PUSH1 0x0 DUP4 ISZERO PUSH2 0x40C JUMPI POP DUP5 DUP3 ADD MLOAD JUMPDEST PUSH1 0x0 NOT PUSH1 0x3 DUP6 SWAP1 SHL SHR NOT AND PUSH1 0x1 DUP5 SWAP1 SHL OR DUP5 SSTORE PUSH2 0x3BB JUMP JUMPDEST PUSH1 0x0 DUP5 DUP2 MSTORE PUSH1 0x20 DUP2 KECCAK256 PUSH1 0x1F NOT DUP6 AND SWAP2 JUMPDEST DUP3 DUP2 LT ISZERO PUSH2 0x454 JUMPI DUP8 DUP6 ADD MLOAD DUP3 SSTORE PUSH1 0x20 SWAP5 DUP6 ADD SWAP5 PUSH1 0x1 SWAP1 SWAP3 ADD SWAP2 ADD PUSH2 0x434 JUMP JUMPDEST POP DUP5 DUP3 LT ISZERO PUSH2 0x472 JUMPI DUP7 DUP5 ADD MLOAD PUSH1 0x0 NOT PUSH1 0x3 DUP8 SWAP1 SHL PUSH1 0xF8 AND SHR NOT AND DUP2 SSTORE JUMPDEST POP POP POP POP PUSH1 0x1 SWAP1 DUP2 SHL ADD SWAP1 SSTORE POP JUMP JUMPDEST PUSH1 0x80 MLOAD PUSH1 0xA0 MLOAD PUSH1 0xC0 MLOAD PUSH2 0x221C PUSH2 0x4B7 PUSH1 0x0 CODECOPY PUSH1 0x0 DUP2 DUP2 PUSH2 0x6CB ADD MSTORE PUSH2 0x97F ADD MSTORE PUSH1 0x0 PUSH2 0xDFF ADD MSTORE PUSH1 0x0 PUSH2 0xD75 ADD MSTORE PUSH2 0x221C PUSH1 0x0 RETURN INVALID PUSH1 0x80 PUSH1 0x40 MSTORE PUSH1 0x4 CALLDATASIZE LT PUSH2 0x20F JUMPI PUSH1 0x0 CALLDATALOAD PUSH1 0xE0 SHR DUP1 PUSH4 0x7F649783 GT PUSH2 0x118 JUMPI DUP1 PUSH4 0xA9059CBB GT PUSH2 0xA0 JUMPI DUP1 PUSH4 0xD101D08B GT PUSH2 0x6F JUMPI DUP1 PUSH4 0xD101D08B EQ PUSH2 0x61D JUMPI DUP1 PUSH4 0xDD62ED3E EQ PUSH2 0x633 JUMPI DUP1 PUSH4 0xEAB8A0EB EQ PUSH2 0x679 JUMPI DUP1 PUSH4 0xF2FDE38B EQ PUSH2 0x699 JUMPI DUP1 PUSH4 0xFA2AF9DA EQ PUSH2 0x6B9 JUMPI PUSH1 0x0 DUP1 REVERT JUMPDEST DUP1 PUSH4 0xA9059CBB EQ PUSH2 0x5BF JUMPI DUP1 PUSH4 0xA93AD247 EQ PUSH2 0x5DF JUMPI DUP1 PUSH4 0xC3967CA5 EQ PUSH2 0x5F5 JUMPI DUP1 PUSH4 0xC8372A12 EQ PUSH2 0x5FD JUMPI PUSH1 0x0 DUP1 REVERT JUMPDEST DUP1 PUSH4 0x902D55A5 GT PUSH2 0xE7 JUMPI DUP1 PUSH4 0x902D55A5 EQ PUSH2 0x53A JUMPI DUP1 PUSH4 0x90E49755 EQ PUSH2 0x558 JUMPI DUP1 PUSH4 0x95D89B41 EQ PUSH2 0x56E JUMPI DUP1 PUSH4 0x9DF51B89 EQ PUSH2 0x583 JUMPI DUP1 PUSH4 0xA1EDFFA2 EQ PUSH2 0x598 JUMPI PUSH1 0x0 DUP1 REVERT JUMPDEST DUP1 PUSH4 0x7F649783 EQ PUSH2 0x4B3 JUMPI DUP1 PUSH4 0x83A9C806 EQ PUSH2 0x4D3 JUMPI DUP1 PUSH4 0x8456CB59 EQ PUSH2 0x4F3 JUMPI DUP1 PUSH4 0x8DA5CB5B EQ PUSH2 0x508 JUMPI PUSH1 0x0 DUP1 REVERT JUMPDEST DUP1 PUSH4 0x3F4BA83A GT PUSH2 0x19B JUMPI DUP1 PUSH4 0x699901F8 GT PUSH2 0x16A JUMPI DUP1 PUSH4 0x699901F8 EQ PUSH2 0x3B0 JUMPI DUP1 PUSH4 0x6F7BC9BE EQ PUSH2 0x3D0 JUMPI DUP1 PUSH4 0x6FF1C9BC EQ PUSH2 0x448 JUMPI DUP1 PUSH4 0x70A08231 EQ PUSH2 0x468 JUMPI DUP1 PUSH4 0x715018A6 EQ PUSH2 0x49E JUMPI PUSH1 0x0 DUP1 REVERT JUMPDEST DUP1 PUSH4 0x3F4BA83A EQ PUSH2 0x347 JUMPI DUP1 PUSH4 0x406D7054 EQ PUSH2 0x35C JUMPI DUP1 PUSH4 0x4D4B8C24 EQ PUSH2 0x379 JUMPI DUP1 PUSH4 0x5C975ABB EQ PUSH2 0x391 JUMPI PUSH1 0x0 DUP1 REVERT JUMPDEST DUP1 PUSH4 0x18160DDD GT PUSH2 0x1E2 JUMPI DUP1 PUSH4 0x18160DDD EQ PUSH2 0x2D9 JUMPI DUP1 PUSH4 0x1FEE5CCD EQ PUSH2 0x2EE JUMPI DUP1 PUSH4 0x23B872DD EQ PUSH2 0x2F8 JUMPI DUP1 PUSH4 0x313CE567 EQ PUSH2 0x318 JUMPI DUP1 PUSH4 0x3610724E EQ PUSH2 0x334 JUMPI PUSH1 0x0 DUP1 REVERT JUMPDEST DUP1 PUSH4 0x434C8C2 EQ PUSH2 0x214 JUMPI DUP1 PUSH4 0x6FDDE03 EQ PUSH2 0x263 JUMPI DUP1 PUSH4 0x95EA7B3 EQ PUSH2 0x285 JUMPI DUP1 PUSH4 0x177DF163 EQ PUSH2 0x2B5 JUMPI JUMPDEST PUSH1 0x0 DUP1 REVERT JUMPDEST CALLVALUE DUP1 ISZERO PUSH2 0x220 JUMPI PUSH1 0x0 DUP1 REVERT JUMPDEST POP PUSH2 0x234 PUSH2 0x22F CALLDATASIZE PUSH1 0x4 PUSH2 0x1D8B JUMP JUMPDEST PUSH2 0x6ED JUMP JUMPDEST PUSH1 0x40 DUP1 MLOAD SWAP6 DUP7 MSTORE PUSH1 0x20 DUP7 ADD SWAP5 SWAP1 SWAP5 MSTORE SWAP3 DUP5 ADD SWAP2 SWAP1 SWAP2 MSTORE ISZERO ISZERO PUSH1 0x60 DUP4 ADD MSTORE PUSH1 0x80 DUP3 ADD MSTORE PUSH1 0xA0 ADD JUMPDEST PUSH1 0x40 MLOAD DUP1 SWAP2 SUB SWAP1 RETURN JUMPDEST CALLVALUE DUP1 ISZERO PUSH2 0x26F JUMPI PUSH1 0x0 DUP1 REVERT JUMPDEST POP PUSH2 0x278 PUSH2 0x77B JUMP JUMPDEST PUSH1 0x40 MLOAD PUSH2 0x25A SWAP2 SWAP1 PUSH2 0x1DAD JUMP JUMPDEST CALLVALUE DUP1 ISZERO PUSH2 0x291 JUMPI PUSH1 0x0 DUP1 REVERT JUMPDEST POP PUSH2 0x2A5 PUSH2 0x2A0 CALLDATASIZE PUSH1 0x4 PUSH2 0x1DFB JUMP JUMPDEST PUSH2 0x80D JUMP JUMPDEST PUSH1 0x40 MLOAD SWAP1 ISZERO ISZERO DUP2 MSTORE PUSH1 0x20 ADD PUSH2 0x25A JUMP JUMPDEST CALLVALUE DUP1 ISZERO PUSH2 0x2C1 JUMPI PUSH1 0x0 DUP1 REVERT JUMPDEST POP PUSH2 0x2CB PUSH1 0x9 SLOAD DUP2 JUMP JUMPDEST PUSH1 0x40 MLOAD SWAP1 DUP2 MSTORE PUSH1 0x20 ADD PUSH2 0x25A JUMP JUMPDEST CALLVALUE DUP1 ISZERO PUSH2 0x2E5 JUMPI PUSH1 0x0 DUP1 REVERT JUMPDEST POP PUSH1 0x2 SLOAD PUSH2 0x2CB JUMP JUMPDEST PUSH2 0x2F6 PUSH2 0x827 JUMP JUMPDEST STOP JUMPDEST CALLVALUE DUP1 ISZERO PUSH2 0x304 JUMPI PUSH1 0x0 DUP1 REVERT JUMPDEST POP PUSH2 0x2A5 PUSH2 0x313 CALLDATASIZE PUSH1 0x4 PUSH2 0x1E25 JUMP JUMPDEST PUSH2 0xA18 JUMP JUMPDEST CALLVALUE DUP1 ISZERO PUSH2 0x324 JUMPI PUSH1 0x0 DUP1 REVERT JUMPDEST POP PUSH1 0x40 MLOAD PUSH1 0x12 DUP2 MSTORE PUSH1 0x20 ADD PUSH2 0x25A JUMP JUMPDEST PUSH2 0x2F6 PUSH2 0x342 CALLDATASIZE PUSH1 0x4 PUSH2 0x1E62 JUMP JUMPDEST PUSH2 0xA3C JUMP JUMPDEST CALLVALUE DUP1 ISZERO PUSH2 0x353 JUMPI PUSH1 0x0 DUP1 REVERT JUMPDEST POP PUSH2 0x2F6 PUSH2 0xD5E JUMP JUMPDEST CALLVALUE DUP1 ISZERO PUSH2 0x368 JUMPI PUSH1 0x0 DUP1 REVERT JUMPDEST POP PUSH2 0x2CB PUSH9 0x2B5E3AF16B1880000 DUP2 JUMP JUMPDEST CALLVALUE DUP1 ISZERO PUSH2 0x385 JUMPI PUSH1 0x0 DUP1 REVERT JUMPDEST POP PUSH2 0x2CB PUSH4 0x784CE00 DUP2 JUMP JUMPDEST CALLVALUE DUP1 ISZERO PUSH2 0x39D JUMPI PUSH1 0x0 DUP1 REVERT JUMPDEST POP PUSH1 0x5 SLOAD PUSH1 0x1 PUSH1 0xA0 SHL SWAP1 DIV PUSH1 0xFF AND PUSH2 0x2A5 JUMP JUMPDEST CALLVALUE DUP1 ISZERO PUSH2 0x3BC JUMPI PUSH1 0x0 DUP1 REVERT JUMPDEST POP PUSH2 0x2CB PUSH2 0x3CB CALLDATASIZE PUSH1 0x4 PUSH2 0x1E62 JUMP JUMPDEST PUSH2 0xD70 JUMP JUMPDEST CALLVALUE DUP1 ISZERO PUSH2 0x3DC JUMPI PUSH1 0x0 DUP1 REVERT JUMPDEST POP PUSH2 0x41E PUSH2 0x3EB CALLDATASIZE PUSH1 0x4 PUSH2 0x1D8B JUMP JUMPDEST PUSH1 0x8 PUSH1 0x20 MSTORE PUSH1 0x0 SWAP1 DUP2 MSTORE PUSH1 0x40 SWAP1 KECCAK256 DUP1 SLOAD PUSH1 0x1 DUP3 ADD SLOAD PUSH1 0x2 DUP4 ADD SLOAD PUSH1 0x3 DUP5 ADD SLOAD PUSH1 0x4 SWAP1 SWAP5 ADD SLOAD PUSH1 0xFF SWAP1 SWAP4 AND SWAP4 SWAP2 SWAP3 SWAP1 SWAP2 SWAP1 DUP6 JUMP JUMPDEST PUSH1 0x40 DUP1 MLOAD SWAP6 ISZERO ISZERO DUP7 MSTORE PUSH1 0x20 DUP7 ADD SWAP5 SWAP1 SWAP5 MSTORE SWAP3 DUP5 ADD SWAP2 SWAP1 SWAP2 MSTORE PUSH1 0x60 DUP4 ADD MSTORE PUSH1 0x80 DUP3 ADD MSTORE PUSH1 0xA0 ADD PUSH2 0x25A JUMP JUMPDEST CALLVALUE DUP1 ISZERO PUSH2 0x454 JUMPI PUSH1 0x0 DUP1 REVERT JUMPDEST POP PUSH2 0x2F6 PUSH2 0x463 CALLDATASIZE PUSH1 0x4 PUSH2 0x1D8B JUMP JUMPDEST PUSH2 0xF50 JUMP JUMPDEST CALLVALUE DUP1 ISZERO PUSH2 0x474 JUMPI PUSH1 0x0 DUP1 REVERT JUMPDEST POP PUSH2 0x2CB PUSH2 0x483 CALLDATASIZE PUSH1 0x4 PUSH2 0x1D8B JUMP JUMPDEST PUSH1 0x1 PUSH1 0x1 PUSH1 0xA0 SHL SUB AND PUSH1 0x0 SWAP1 DUP2 MSTORE PUSH1 0x20 DUP2 SWAP1 MSTORE PUSH1 0x40 SWAP1 KECCAK256 SLOAD SWAP1 JUMP JUMPDEST CALLVALUE DUP1 ISZERO PUSH2 0x4AA JUMPI PUSH1 0x0 DUP1 REVERT JUMPDEST POP PUSH2 0x2F6 PUSH2 0x10FF JUMP JUMPDEST CALLVALUE DUP1 ISZERO PUSH2 0x4BF JUMPI PUSH1 0x0 DUP1 REVERT JUMPDEST POP PUSH2 0x2F6 PUSH2 0x4CE CALLDATASIZE PUSH1 0x4 PUSH2 0x1E7B JUMP JUMPDEST PUSH2 0x1111 JUMP JUMPDEST CALLVALUE DUP1 ISZERO PUSH2 0x4DF JUMPI PUSH1 0x0 DUP1 REVERT JUMPDEST POP PUSH2 0x2F6 PUSH2 0x4EE CALLDATASIZE PUSH1 0x4 PUSH2 0x1EF2 JUMP JUMPDEST PUSH2 0x11E2 JUMP JUMPDEST CALLVALUE DUP1 ISZERO PUSH2 0x4FF JUMPI PUSH1 0x0 DUP1 REVERT JUMPDEST POP PUSH2 0x2F6 PUSH2 0x1347 JUMP JUMPDEST CALLVALUE DUP1 ISZERO PUSH2 0x514 JUMPI PUSH1 0x0 DUP1 REVERT JUMPDEST POP PUSH1 0x5 SLOAD PUSH1 0x1 PUSH1 0x1 PUSH1 0xA0 SHL SUB AND JUMPDEST PUSH1 0x40 MLOAD PUSH1 0x1 PUSH1 0x1 PUSH1 0xA0 SHL SUB SWAP1 SWAP2 AND DUP2 MSTORE PUSH1 0x20 ADD PUSH2 0x25A JUMP JUMPDEST CALLVALUE DUP1 ISZERO PUSH2 0x546 JUMPI PUSH1 0x0 DUP1 REVERT JUMPDEST POP PUSH2 0x2CB PUSH10 0x11C9A62D04ED0C800000 DUP2 JUMP JUMPDEST CALLVALUE DUP1 ISZERO PUSH2 0x564 JUMPI PUSH1 0x0 DUP1 REVERT JUMPDEST POP PUSH2 0x2CB PUSH2 0x3E8 DUP2 JUMP JUMPDEST CALLVALUE DUP1 ISZERO PUSH2 0x57A JUMPI PUSH1 0x0 DUP1 REVERT JUMPDEST POP PUSH2 0x278 PUSH2 0x1357 JUMP JUMPDEST CALLVALUE DUP1 ISZERO PUSH2 0x58F JUMPI PUSH1 0x0 DUP1 REVERT JUMPDEST POP PUSH2 0x2F6 PUSH2 0x1366 JUMP JUMPDEST CALLVALUE DUP1 ISZERO PUSH2 0x5A4 JUMPI PUSH1 0x0 DUP1 REVERT JUMPDEST POP PUSH1 0x7 SLOAD PUSH2 0x5B2 SWAP1 PUSH1 0xFF AND DUP2 JUMP JUMPDEST PUSH1 0x40 MLOAD PUSH2 0x25A SWAP2 SWAP1 PUSH2 0x1F29 JUMP JUMPDEST CALLVALUE DUP1 ISZERO PUSH2 0x5CB JUMPI PUSH1 0x0 DUP1 REVERT JUMPDEST POP PUSH2 0x2A5 PUSH2 0x5DA CALLDATASIZE PUSH1 0x4 PUSH2 0x1DFB JUMP JUMPDEST PUSH2 0x14BB JUMP JUMPDEST CALLVALUE DUP1 ISZERO PUSH2 0x5EB JUMPI PUSH1 0x0 DUP1 REVERT JUMPDEST POP PUSH2 0x2CB PUSH2 0xBB8 DUP2 JUMP JUMPDEST PUSH2 0x2F6 PUSH2 0x14C9 JUMP JUMPDEST CALLVALUE DUP1 ISZERO PUSH2 0x609 JUMPI PUSH1 0x0 DUP1 REVERT JUMPDEST POP PUSH2 0x2CB PUSH2 0x618 CALLDATASIZE PUSH1 0x4 PUSH2 0x1D8B JUMP JUMPDEST PUSH2 0x17D5 JUMP JUMPDEST CALLVALUE DUP1 ISZERO PUSH2 0x629 JUMPI PUSH1 0x0 DUP1 REVERT JUMPDEST POP PUSH2 0x2CB PUSH2 0x1770 DUP2 JUMP JUMPDEST CALLVALUE DUP1 ISZERO PUSH2 0x63F JUMPI PUSH1 0x0 DUP1 REVERT JUMPDEST POP PUSH2 0x2CB PUSH2 0x64E CALLDATASIZE PUSH1 0x4 PUSH2 0x1F51 JUMP JUMPDEST PUSH1 0x1 PUSH1 0x1 PUSH1 0xA0 SHL SUB SWAP2 DUP3 AND PUSH1 0x0 SWAP1 DUP2 MSTORE PUSH1 0x1 PUSH1 0x20 SWAP1 DUP2 MSTORE PUSH1 0x40 DUP1 DUP4 KECCAK256 SWAP4 SWAP1 SWAP5 AND DUP3 MSTORE SWAP2 SWAP1 SWAP2 MSTORE KECCAK256 SLOAD SWAP1 JUMP JUMPDEST CALLVALUE DUP1 ISZERO PUSH2 0x685 JUMPI PUSH1 0x0 DUP1 REVERT JUMPDEST POP PUSH2 0x2CB PUSH2 0x694 CALLDATASIZE PUSH1 0x4 PUSH2 0x1E62 JUMP JUMPDEST PUSH2 0x1839 JUMP JUMPDEST CALLVALUE DUP1 ISZERO PUSH2 0x6A5 JUMPI PUSH1 0x0 DUP1 REVERT JUMPDEST POP PUSH2 0x2F6 PUSH2 0x6B4 CALLDATASIZE PUSH1 0x4 PUSH2 0x1D8B JUMP JUMPDEST PUSH2 0x1844 JUMP JUMPDEST CALLVALUE DUP1 ISZERO PUSH2 0x6C5 JUMPI PUSH1 0x0 DUP1 REVERT JUMPDEST POP PUSH2 0x522 PUSH32 0x0 DUP2 JUMP JUMPDEST PUSH1 0x1 PUSH1 0x1 PUSH1 0xA0 SHL SUB DUP2 AND PUSH1 0x0 SWAP1 DUP2 MSTORE PUSH1 0x8 PUSH1 0x20 SWAP1 DUP2 MSTORE PUSH1 0x40 DUP1 DUP4 KECCAK256 DUP2 MLOAD PUSH1 0xA0 DUP2 ADD DUP4 MSTORE DUP2 SLOAD PUSH1 0xFF AND ISZERO ISZERO DUP2 MSTORE PUSH1 0x1 DUP3 ADD SLOAD SWAP4 DUP2 ADD DUP5 SWAP1 MSTORE PUSH1 0x2 DUP3 ADD SLOAD SWAP3 DUP2 ADD DUP4 SWAP1 MSTORE PUSH1 0x3 DUP3 ADD SLOAD PUSH1 0x60 DUP3 ADD MSTORE PUSH1 0x4 SWAP1 SWAP2 ADD SLOAD PUSH1 0x80 DUP3 ADD DUP2 SWAP1 MSTORE DUP5 SWAP4 DUP5 SWAP4 DUP5 SWAP4 DUP5 SWAP4 SWAP1 SWAP3 SWAP1 SWAP2 SWAP1 PUSH2 0x762 SWAP1 PUSH4 0x784CE00 SWAP1 PUSH2 0x1F9A JUMP JUMPDEST DUP4 MLOAD PUSH1 0x60 SWAP1 SWAP5 ADD MLOAD SWAP3 SWAP11 SWAP2 SWAP10 POP SWAP8 POP SWAP2 SWAP6 POP SWAP4 POP SWAP2 POP POP JUMP JUMPDEST PUSH1 0x60 PUSH1 0x3 DUP1 SLOAD PUSH2 0x78A SWAP1 PUSH2 0x1FAD JUMP JUMPDEST DUP1 PUSH1 0x1F ADD PUSH1 0x20 DUP1 SWAP2 DIV MUL PUSH1 0x20 ADD PUSH1 0x40 MLOAD SWAP1 DUP2 ADD PUSH1 0x40 MSTORE DUP1 SWAP3 SWAP2 SWAP1 DUP2 DUP2 MSTORE PUSH1 0x20 ADD DUP3 DUP1 SLOAD PUSH2 0x7B6 SWAP1 PUSH2 0x1FAD JUMP JUMPDEST DUP1 ISZERO PUSH2 0x803 JUMPI DUP1 PUSH1 0x1F LT PUSH2 0x7D8 JUMPI PUSH2 0x100 DUP1 DUP4 SLOAD DIV MUL DUP4 MSTORE SWAP2 PUSH1 0x20 ADD SWAP2 PUSH2 0x803 JUMP JUMPDEST DUP3 ADD SWAP2 SWAP1 PUSH1 0x0 MSTORE PUSH1 0x20 PUSH1 0x0 KECCAK256 SWAP1 JUMPDEST DUP2 SLOAD DUP2 MSTORE SWAP1 PUSH1 0x1 ADD SWAP1 PUSH1 0x20 ADD DUP1 DUP4 GT PUSH2 0x7E6 JUMPI DUP3 SWAP1 SUB PUSH1 0x1F AND DUP3 ADD SWAP2 JUMPDEST POP POP POP POP POP SWAP1 POP SWAP1 JUMP JUMPDEST PUSH1 0x0 CALLER PUSH2 0x81B DUP2 DUP6 DUP6 PUSH2 0x187F JUMP JUMPDEST PUSH1 0x1 SWAP2 POP POP JUMPDEST SWAP3 SWAP2 POP POP JUMP JUMPDEST PUSH2 0x82F PUSH2 0x188C JUMP JUMPDEST PUSH2 0x837 PUSH2 0x18B9 JUMP JUMPDEST PUSH1 0x0 CALLVALUE GT PUSH2 0x88C JUMPI PUSH1 0x40 MLOAD PUSH3 0x461BCD PUSH1 0xE5 SHL DUP2 MSTORE PUSH1 0x20 PUSH1 0x4 DUP3 ADD MSTORE PUSH1 0x18 PUSH1 0x24 DUP3 ADD MSTORE PUSH32 0x4E6F2070726F6669747320746F20646973747269627574650000000000000000 PUSH1 0x44 DUP3 ADD MSTORE PUSH1 0x64 ADD JUMPDEST PUSH1 0x40 MLOAD DUP1 SWAP2 SUB SWAP1 REVERT JUMPDEST PUSH1 0x0 PUSH1 0x40 MLOAD DUP1 PUSH1 0x60 ADD PUSH1 0x40 MSTORE DUP1 PUSH2 0x2710 PUSH2 0x1770 CALLVALUE PUSH2 0x8AA SWAP2 SWAP1 PUSH2 0x1FE7 JUMP JUMPDEST PUSH2 0x8B4 SWAP2 SWAP1 PUSH2 0x1FFE JUMP JUMPDEST DUP2 MSTORE PUSH1 0x20 ADD PUSH2 0x2710 PUSH2 0x8C8 PUSH2 0x3E8 CALLVALUE PUSH2 0x1FE7 JUMP JUMPDEST PUSH2 0x8D2 SWAP2 SWAP1 PUSH2 0x1FFE JUMP JUMPDEST DUP2 MSTORE PUSH1 0x20 ADD PUSH2 0x2710 PUSH2 0x8E6 PUSH2 0x3E8 CALLVALUE PUSH2 0x1FE7 JUMP JUMPDEST PUSH2 0x8F0 SWAP2 SWAP1 PUSH2 0x1FFE JUMP JUMPDEST PUSH2 0x2710 PUSH2 0x8FF PUSH2 0x1770 CALLVALUE PUSH2 0x1FE7 JUMP JUMPDEST PUSH2 0x909 SWAP2 SWAP1 PUSH2 0x1FFE JUMP JUMPDEST PUSH2 0x913 SWAP1 CALLVALUE PUSH2 0x2020 JUMP JUMPDEST PUSH2 0x91D SWAP2 SWAP1 PUSH2 0x2020 JUMP JUMPDEST SWAP1 MSTORE SWAP1 POP PUSH2 0x933 PUSH1 0x5 SLOAD PUSH1 0x1 PUSH1 0x1 PUSH1 0xA0 SHL SUB AND SWAP1 JUMP JUMPDEST DUP2 MLOAD PUSH1 0x40 MLOAD PUSH1 0x1 PUSH1 0x1 PUSH1 0xA0 SHL SUB SWAP3 SWAP1 SWAP3 AND SWAP2 DUP2 ISZERO PUSH2 0x8FC MUL SWAP2 SWAP1 PUSH1 0x0 DUP2 DUP2 DUP2 DUP6 DUP9 DUP9 CALL SWAP4 POP POP POP POP ISZERO DUP1 ISZERO PUSH2 0x96C JUMPI RETURNDATASIZE PUSH1 0x0 DUP1 RETURNDATACOPY RETURNDATASIZE PUSH1 0x0 REVERT JUMPDEST POP PUSH1 0x20 DUP2 ADD MLOAD PUSH1 0x40 MLOAD PUSH1 0x1 PUSH1 0x1 PUSH1 0xA0 SHL SUB PUSH32 0x0 AND SWAP2 DUP1 ISZERO PUSH2 0x8FC MUL SWAP2 PUSH1 0x0 DUP2 DUP2 DUP2 DUP6 DUP9 DUP9 CALL SWAP4 POP POP POP POP ISZERO DUP1 ISZERO PUSH2 0x9C6 JUMPI RETURNDATASIZE PUSH1 0x0 DUP1 RETURNDATACOPY RETURNDATASIZE PUSH1 0x0 REVERT JUMPDEST POP DUP1 PUSH1 0x40 ADD MLOAD PUSH1 0x9 PUSH1 0x0 DUP3 DUP3 SLOAD PUSH2 0x9DD SWAP2 SWAP1 PUSH2 0x1F9A JUMP JUMPDEST SWAP1 SWAP2 SSTORE POP POP PUSH1 0x40 MLOAD CALLVALUE DUP2 MSTORE PUSH32 0x4D074AF92473714A50D24A44926BF6CE3944F7774167533A0BC560C1C2E51909 SWAP1 PUSH1 0x20 ADD PUSH1 0x40 MLOAD DUP1 SWAP2 SUB SWAP1 LOG1 POP JUMP JUMPDEST PUSH1 0x0 CALLER PUSH2 0xA26 DUP6 DUP3 DUP6 PUSH2 0x18E4 JUMP JUMPDEST PUSH2 0xA31 DUP6 DUP6 DUP6 PUSH2 0x1963 JUMP JUMPDEST POP PUSH1 0x1 SWAP5 SWAP4 POP POP POP POP JUMP JUMPDEST PUSH2 0xA44 PUSH2 0x18B9 JUMP JUMPDEST PUSH1 0x1 PUSH1 0x7 SLOAD PUSH1 0xFF AND PUSH1 0x3 DUP2 GT ISZERO PUSH2 0xA5D JUMPI PUSH2 0xA5D PUSH2 0x1F13 JUMP JUMPDEST EQ PUSH2 0xA9F JUMPI PUSH1 0x40 MLOAD PUSH3 0x461BCD PUSH1 0xE5 SHL DUP2 MSTORE PUSH1 0x20 PUSH1 0x4 DUP3 ADD MSTORE PUSH1 0x12 PUSH1 0x24 DUP3 ADD MSTORE PUSH18 0x53616C65206973206E6F7420616374697665 PUSH1 0x70 SHL PUSH1 0x44 DUP3 ADD MSTORE PUSH1 0x64 ADD PUSH2 0x883 JUMP JUMPDEST CALLER PUSH1 0x0 SWAP1 DUP2 MSTORE PUSH1 0x8 PUSH1 0x20 MSTORE PUSH1 0x40 SWAP1 KECCAK256 SLOAD PUSH1 0xFF AND PUSH2 0xAFE JUMPI PUSH1 0x40 MLOAD PUSH3 0x461BCD PUSH1 0xE5 SHL DUP2 MSTORE PUSH1 0x20 PUSH1 0x4 DUP3 ADD MSTORE PUSH1 0x17 PUSH1 0x24 DUP3 ADD MSTORE PUSH32 0x41646472657373206E6F742077686974656C6973746564000000000000000000 PUSH1 0x44 DUP3 ADD MSTORE PUSH1 0x64 ADD PUSH2 0x883 JUMP JUMPDEST PUSH2 0xB06 PUSH2 0x19C2 JUMP JUMPDEST PUSH1 0x0 DUP2 GT PUSH2 0xB56 JUMPI PUSH1 0x40 MLOAD PUSH3 0x461BCD PUSH1 0xE5 SHL DUP2 MSTORE PUSH1 0x20 PUSH1 0x4 DUP3 ADD MSTORE PUSH1 0x1D PUSH1 0x24 DUP3 ADD MSTORE PUSH32 0x416D6F756E74206D7573742062652067726561746572207468616E2030000000 PUSH1 0x44 DUP3 ADD MSTORE PUSH1 0x64 ADD PUSH2 0x883 JUMP JUMPDEST PUSH10 0x11C9A62D04ED0C800000 DUP2 PUSH2 0xB6B PUSH1 0x2 SLOAD SWAP1 JUMP JUMPDEST PUSH2 0xB75 SWAP2 SWAP1 PUSH2 0x1F9A JUMP JUMPDEST GT ISZERO PUSH2 0xBBA JUMPI PUSH1 0x40 MLOAD PUSH3 0x461BCD PUSH1 0xE5 SHL DUP2 MSTORE PUSH1 0x20 PUSH1 0x4 DUP3 ADD MSTORE PUSH1 0x14 PUSH1 0x24 DUP3 ADD MSTORE PUSH20 0x4578636565647320746F74616C20737570706C79 PUSH1 0x60 SHL PUSH1 0x44 DUP3 ADD MSTORE PUSH1 0x64 ADD PUSH2 0x883 JUMP JUMPDEST PUSH1 0x0 PUSH2 0xBC5 DUP3 PUSH2 0xD70 JUMP JUMPDEST SWAP1 POP DUP1 CALLVALUE LT ISZERO PUSH2 0xC0E JUMPI PUSH1 0x40 MLOAD PUSH3 0x461BCD PUSH1 0xE5 SHL DUP2 MSTORE PUSH1 0x20 PUSH1 0x4 DUP3 ADD MSTORE PUSH1 0x14 PUSH1 0x24 DUP3 ADD MSTORE PUSH20 0x125B9CDD59999A58DA595B9D081C185E5B595B9D PUSH1 0x62 SHL PUSH1 0x44 DUP3 ADD MSTORE PUSH1 0x64 ADD PUSH2 0x883 JUMP JUMPDEST PUSH2 0xC18 CALLER DUP4 PUSH2 0x19EC JUMP JUMPDEST CALLER PUSH1 0x0 SWAP1 DUP2 MSTORE PUSH1 0x8 PUSH1 0x20 MSTORE PUSH1 0x40 DUP2 KECCAK256 TIMESTAMP PUSH1 0x1 DUP3 ADD SSTORE PUSH1 0x3 DUP2 ADD DUP1 SLOAD SWAP2 SWAP3 DUP5 SWAP3 PUSH2 0xC42 SWAP1 DUP5 SWAP1 PUSH2 0x1F9A JUMP JUMPDEST SWAP3 POP POP DUP2 SWAP1 SSTORE POP DUP3 DUP2 PUSH1 0x4 ADD PUSH1 0x0 DUP3 DUP3 SLOAD PUSH2 0xC5D SWAP2 SWAP1 PUSH2 0x1F9A JUMP JUMPDEST SWAP1 SWAP2 SSTORE POP POP CALLER PUSH1 0x0 SWAP1 DUP2 MSTORE PUSH1 0xB PUSH1 0x20 MSTORE PUSH1 0x40 SWAP1 KECCAK256 SLOAD PUSH1 0xFF AND PUSH2 0xCD4 JUMPI PUSH1 0xA DUP1 SLOAD PUSH1 0x1 DUP2 DUP2 ADD SWAP1 SWAP3 SSTORE PUSH32 0xC65A7BB8D6351C1CF70C95A316CC6A92839C986682D98BC35F958F4883F9D2A8 ADD DUP1 SLOAD PUSH1 0x1 PUSH1 0x1 PUSH1 0xA0 SHL SUB NOT AND CALLER SWAP1 DUP2 OR SWAP1 SWAP2 SSTORE PUSH1 0x0 SWAP1 DUP2 MSTORE PUSH1 0xB PUSH1 0x20 MSTORE PUSH1 0x40 SWAP1 KECCAK256 DUP1 SLOAD PUSH1 0xFF NOT AND SWAP1 SWAP2 OR SWAP1 SSTORE JUMPDEST DUP2 CALLVALUE GT ISZERO PUSH2 0xD14 JUMPI CALLER PUSH2 0x8FC PUSH2 0xCEA DUP5 CALLVALUE PUSH2 0x2020 JUMP JUMPDEST PUSH1 0x40 MLOAD DUP2 ISZERO SWAP1 SWAP3 MUL SWAP2 PUSH1 0x0 DUP2 DUP2 DUP2 DUP6 DUP9 DUP9 CALL SWAP4 POP POP POP POP ISZERO DUP1 ISZERO PUSH2 0xD12 JUMPI RETURNDATASIZE PUSH1 0x0 DUP1 RETURNDATACOPY RETURNDATASIZE PUSH1 0x0 REVERT JUMPDEST POP JUMPDEST PUSH1 0x40 DUP1 MLOAD DUP5 DUP2 MSTORE PUSH1 0x20 DUP2 ADD DUP5 SWAP1 MSTORE CALLER SWAP2 PUSH32 0x8FAFEBCAF9D154343DAD25669BFA277F4FBACD7AC6B0C4FED522580E040A0F33 SWAP2 ADD PUSH1 0x40 MLOAD DUP1 SWAP2 SUB SWAP1 LOG2 POP POP PUSH2 0xD5B PUSH1 0x1 PUSH1 0x6 SSTORE JUMP JUMPDEST POP JUMP JUMPDEST PUSH2 0xD66 PUSH2 0x188C JUMP JUMPDEST PUSH2 0xD6E PUSH2 0x1A26 JUMP JUMPDEST JUMP JUMPDEST PUSH1 0x0 DUP1 PUSH32 0x0 PUSH1 0x1 PUSH1 0x1 PUSH1 0xA0 SHL SUB AND PUSH4 0xFEAF968C PUSH1 0x40 MLOAD DUP2 PUSH4 0xFFFFFFFF AND PUSH1 0xE0 SHL DUP2 MSTORE PUSH1 0x4 ADD PUSH1 0xA0 PUSH1 0x40 MLOAD DUP1 DUP4 SUB DUP2 DUP7 GAS STATICCALL ISZERO DUP1 ISZERO PUSH2 0xDD1 JUMPI RETURNDATASIZE PUSH1 0x0 DUP1 RETURNDATACOPY RETURNDATASIZE PUSH1 0x0 REVERT JUMPDEST POP POP POP POP PUSH1 0x40 MLOAD RETURNDATASIZE PUSH1 0x1F NOT PUSH1 0x1F DUP3 ADD AND DUP3 ADD DUP1 PUSH1 0x40 MSTORE POP DUP2 ADD SWAP1 PUSH2 0xDF5 SWAP2 SWAP1 PUSH2 0x204D JUMP JUMPDEST POP POP POP SWAP2 POP POP PUSH1 0x0 PUSH32 0x0 PUSH1 0x1 PUSH1 0x1 PUSH1 0xA0 SHL SUB AND PUSH4 0xFEAF968C PUSH1 0x40 MLOAD DUP2 PUSH4 0xFFFFFFFF AND PUSH1 0xE0 SHL DUP2 MSTORE PUSH1 0x4 ADD PUSH1 0xA0 PUSH1 0x40 MLOAD DUP1 DUP4 SUB DUP2 DUP7 GAS STATICCALL ISZERO DUP1 ISZERO PUSH2 0xE5B JUMPI RETURNDATASIZE PUSH1 0x0 DUP1 RETURNDATACOPY RETURNDATASIZE PUSH1 0x0 REVERT JUMPDEST POP POP POP POP PUSH1 0x40 MLOAD RETURNDATASIZE PUSH1 0x1F NOT PUSH1 0x1F DUP3 ADD AND DUP3 ADD DUP1 PUSH1 0x40 MSTORE POP DUP2 ADD SWAP1 PUSH2 0xE7F SWAP2 SWAP1 PUSH2 0x204D JUMP JUMPDEST POP POP POP SWAP2 POP POP PUSH1 0x0 DUP3 SGT DUP1 ISZERO PUSH2 0xE95 JUMPI POP PUSH1 0x0 DUP2 SGT JUMPDEST PUSH2 0xEE1 JUMPI PUSH1 0x40 MLOAD PUSH3 0x461BCD PUSH1 0xE5 SHL DUP2 MSTORE PUSH1 0x20 PUSH1 0x4 DUP3 ADD MSTORE PUSH1 0x17 PUSH1 0x24 DUP3 ADD MSTORE PUSH32 0x496E76616C696420707269636520666565642064617461000000000000000000 PUSH1 0x44 DUP3 ADD MSTORE PUSH1 0x64 ADD PUSH2 0x883 JUMP JUMPDEST PUSH1 0x0 PUSH8 0xDE0B6B3A7640000 PUSH2 0xEFF PUSH9 0x2B5E3AF16B1880000 DUP8 PUSH2 0x1FE7 JUMP JUMPDEST PUSH2 0xF09 SWAP2 SWAP1 PUSH2 0x1FFE JUMP JUMPDEST SWAP1 POP PUSH2 0xF17 PUSH1 0x8 PUSH1 0xA PUSH2 0x2186 JUMP JUMPDEST PUSH2 0xF21 SWAP1 DUP4 PUSH2 0x1FE7 JUMP JUMPDEST PUSH2 0xF2B DUP5 DUP4 PUSH2 0x1FE7 JUMP JUMPDEST PUSH2 0xF3D SWAP1 PUSH8 0xDE0B6B3A7640000 PUSH2 0x1FE7 JUMP JUMPDEST PUSH2 0xF47 SWAP2 SWAP1 PUSH2 0x1FFE JUMP JUMPDEST SWAP6 SWAP5 POP POP POP POP POP JUMP JUMPDEST PUSH2 0xF58 PUSH2 0x188C JUMP JUMPDEST PUSH1 0x0 PUSH1 0x1 PUSH1 0x1 PUSH1 0xA0 SHL SUB DUP3 AND PUSH2 0xFBA JUMPI POP SELFBALANCE PUSH2 0xF7C PUSH1 0x5 SLOAD PUSH1 0x1 PUSH1 0x1 PUSH1 0xA0 SHL SUB AND SWAP1 JUMP JUMPDEST PUSH1 0x1 PUSH1 0x1 PUSH1 0xA0 SHL SUB AND PUSH2 0x8FC DUP3 SWAP1 DUP2 ISZERO MUL SWAP1 PUSH1 0x40 MLOAD PUSH1 0x0 PUSH1 0x40 MLOAD DUP1 DUP4 SUB DUP2 DUP6 DUP9 DUP9 CALL SWAP4 POP POP POP POP ISZERO DUP1 ISZERO PUSH2 0xFB4 JUMPI RETURNDATASIZE PUSH1 0x0 DUP1 RETURNDATACOPY RETURNDATASIZE PUSH1 0x0 REVERT JUMPDEST POP PUSH2 0x10B8 JUMP JUMPDEST PUSH1 0x40 MLOAD PUSH4 0x70A08231 PUSH1 0xE0 SHL DUP2 MSTORE ADDRESS PUSH1 0x4 DUP3 ADD MSTORE PUSH1 0x1 PUSH1 0x1 PUSH1 0xA0 SHL SUB DUP4 AND SWAP1 PUSH4 0x70A08231 SWAP1 PUSH1 0x24 ADD PUSH1 0x20 PUSH1 0x40 MLOAD DUP1 DUP4 SUB DUP2 DUP7 GAS STATICCALL ISZERO DUP1 ISZERO PUSH2 0xFFE JUMPI RETURNDATASIZE PUSH1 0x0 DUP1 RETURNDATACOPY RETURNDATASIZE PUSH1 0x0 REVERT JUMPDEST POP POP POP POP PUSH1 0x40 MLOAD RETURNDATASIZE PUSH1 0x1F NOT PUSH1 0x1F DUP3 ADD AND DUP3 ADD DUP1 PUSH1 0x40 MSTORE POP DUP2 ADD SWAP1 PUSH2 0x1022 SWAP2 SWAP1 PUSH2 0x2195 JUMP JUMPDEST SWAP1 POP DUP2 PUSH1 0x1 PUSH1 0x1 PUSH1 0xA0 SHL SUB AND PUSH4 0xA9059CBB PUSH2 0x1045 PUSH1 0x5 SLOAD PUSH1 0x1 PUSH1 0x1 PUSH1 0xA0 SHL SUB AND SWAP1 JUMP JUMPDEST PUSH1 0x40 MLOAD PUSH1 0x1 PUSH1 0x1 PUSH1 0xE0 SHL SUB NOT PUSH1 0xE0 DUP5 SWAP1 SHL AND DUP2 MSTORE PUSH1 0x1 PUSH1 0x1 PUSH1 0xA0 SHL SUB SWAP1 SWAP2 AND PUSH1 0x4 DUP3 ADD MSTORE PUSH1 0x24 DUP2 ADD DUP5 SWAP1 MSTORE PUSH1 0x44 ADD PUSH1 0x20 PUSH1 0x40 MLOAD DUP1 DUP4 SUB DUP2 PUSH1 0x0 DUP8 GAS CALL ISZERO DUP1 ISZERO PUSH2 0x1092 JUMPI RETURNDATASIZE PUSH1 0x0 DUP1 RETURNDATACOPY RETURNDATASIZE PUSH1 0x0 REVERT JUMPDEST POP POP POP POP PUSH1 0x40 MLOAD RETURNDATASIZE PUSH1 0x1F NOT PUSH1 0x1F DUP3 ADD AND DUP3 ADD DUP1 PUSH1 0x40 MSTORE POP DUP2 ADD SWAP1 PUSH2 0x10B6 SWAP2 SWAP1 PUSH2 0x21AE JUMP JUMPDEST POP JUMPDEST DUP2 PUSH1 0x1 PUSH1 0x1 PUSH1 0xA0 SHL SUB AND PUSH32 0x5FAFA99D0643513820BE26656B45130B01E1C03062E1266BF36F88CBD3BD9695 DUP3 PUSH1 0x40 MLOAD PUSH2 0x10F3 SWAP2 DUP2 MSTORE PUSH1 0x20 ADD SWAP1 JUMP JUMPDEST PUSH1 0x40 MLOAD DUP1 SWAP2 SUB SWAP1 LOG2 POP POP JUMP JUMPDEST PUSH2 0x1107 PUSH2 0x188C JUMP JUMPDEST PUSH2 0xD6E PUSH1 0x0 PUSH2 0x1A7B JUMP JUMPDEST PUSH2 0x1119 PUSH2 0x188C JUMP JUMPDEST PUSH1 0x0 JUMPDEST DUP2 DUP2 LT ISZERO PUSH2 0x11DD JUMPI PUSH1 0x1 PUSH1 0x8 PUSH1 0x0 DUP6 DUP6 DUP6 DUP2 DUP2 LT PUSH2 0x113C JUMPI PUSH2 0x113C PUSH2 0x21D0 JUMP JUMPDEST SWAP1 POP PUSH1 0x20 MUL ADD PUSH1 0x20 DUP2 ADD SWAP1 PUSH2 0x1151 SWAP2 SWAP1 PUSH2 0x1D8B JUMP JUMPDEST PUSH1 0x1 PUSH1 0x1 PUSH1 0xA0 SHL SUB AND DUP2 MSTORE PUSH1 0x20 DUP2 ADD SWAP2 SWAP1 SWAP2 MSTORE PUSH1 0x40 ADD PUSH1 0x0 KECCAK256 DUP1 SLOAD PUSH1 0xFF NOT AND SWAP2 ISZERO ISZERO SWAP2 SWAP1 SWAP2 OR SWAP1 SSTORE DUP3 DUP3 DUP3 DUP2 DUP2 LT PUSH2 0x118B JUMPI PUSH2 0x118B PUSH2 0x21D0 JUMP JUMPDEST SWAP1 POP PUSH1 0x20 MUL ADD PUSH1 0x20 DUP2 ADD SWAP1 PUSH2 0x11A0 SWAP2 SWAP1 PUSH2 0x1D8B JUMP JUMPDEST PUSH1 0x1 PUSH1 0x1 PUSH1 0xA0 SHL SUB AND PUSH32 0xDED95A7461813082C997645A1B5E07EB321073A96B7C65DC7F793625383F896E PUSH1 0x40 MLOAD PUSH1 0x40 MLOAD DUP1 SWAP2 SUB SWAP1 LOG2 PUSH1 0x1 ADD PUSH2 0x111C JUMP JUMPDEST POP POP POP JUMP JUMPDEST PUSH2 0x11EA PUSH2 0x188C JUMP JUMPDEST DUP1 PUSH1 0x0 PUSH1 0x7 SLOAD PUSH1 0xFF AND PUSH1 0x3 DUP2 GT ISZERO PUSH2 0x1204 JUMPI PUSH2 0x1204 PUSH2 0x1F13 JUMP JUMPDEST EQ DUP1 ISZERO PUSH2 0x1222 JUMPI POP PUSH1 0x1 DUP2 PUSH1 0x3 DUP2 GT ISZERO PUSH2 0x1220 JUMPI PUSH2 0x1220 PUSH2 0x1F13 JUMP JUMPDEST EQ JUMPDEST DUP1 PUSH2 0x125F JUMPI POP PUSH1 0x1 PUSH1 0x7 SLOAD PUSH1 0xFF AND PUSH1 0x3 DUP2 GT ISZERO PUSH2 0x1241 JUMPI PUSH2 0x1241 PUSH2 0x1F13 JUMP JUMPDEST EQ DUP1 ISZERO PUSH2 0x125F JUMPI POP PUSH1 0x2 DUP2 PUSH1 0x3 DUP2 GT ISZERO PUSH2 0x125D JUMPI PUSH2 0x125D PUSH2 0x1F13 JUMP JUMPDEST EQ JUMPDEST DUP1 PUSH2 0x129C JUMPI POP PUSH1 0x2 PUSH1 0x7 SLOAD PUSH1 0xFF AND PUSH1 0x3 DUP2 GT ISZERO PUSH2 0x127E JUMPI PUSH2 0x127E PUSH2 0x1F13 JUMP JUMPDEST EQ DUP1 ISZERO PUSH2 0x129C JUMPI POP PUSH1 0x3 DUP2 PUSH1 0x3 DUP2 GT ISZERO PUSH2 0x129A JUMPI PUSH2 0x129A PUSH2 0x1F13 JUMP JUMPDEST EQ JUMPDEST PUSH2 0x12E8 JUMPI PUSH1 0x40 MLOAD PUSH3 0x461BCD PUSH1 0xE5 SHL DUP2 MSTORE PUSH1 0x20 PUSH1 0x4 DUP3 ADD MSTORE PUSH1 0x1B PUSH1 0x24 DUP3 ADD MSTORE PUSH32 0x496E76616C696420776F726B666C6F77207472616E736974696F6E0000000000 PUSH1 0x44 DUP3 ADD MSTORE PUSH1 0x64 ADD PUSH2 0x883 JUMP JUMPDEST PUSH1 0x7 DUP1 SLOAD DUP4 SWAP2 SWAP1 PUSH1 0xFF NOT AND PUSH1 0x1 DUP4 PUSH1 0x3 DUP2 GT ISZERO PUSH2 0x1307 JUMPI PUSH2 0x1307 PUSH2 0x1F13 JUMP JUMPDEST MUL OR SWAP1 SSTORE POP PUSH32 0xB8B04218A34924533C0CB5F3C199A94E5A3534E8BCF1E27FF26AB5E8F0DD2A6C DUP3 PUSH1 0x40 MLOAD PUSH2 0x133B SWAP2 SWAP1 PUSH2 0x1F29 JUMP JUMPDEST PUSH1 0x40 MLOAD DUP1 SWAP2 SUB SWAP1 LOG1 POP POP JUMP JUMPDEST PUSH2 0x134F PUSH2 0x188C JUMP JUMPDEST PUSH2 0xD6E PUSH2 0x1ACD JUMP JUMPDEST PUSH1 0x60 PUSH1 0x4 DUP1 SLOAD PUSH2 0x78A SWAP1 PUSH2 0x1FAD JUMP JUMPDEST PUSH2 0x136E PUSH2 0x18B9 JUMP JUMPDEST CALLER PUSH1 0x0 SWAP1 DUP2 MSTORE PUSH1 0x8 PUSH1 0x20 MSTORE PUSH1 0x40 SWAP1 KECCAK256 PUSH1 0x1 ADD SLOAD PUSH2 0x1390 SWAP1 PUSH4 0x784CE00 SWAP1 PUSH2 0x1F9A JUMP JUMPDEST TIMESTAMP LT ISZERO PUSH2 0x13F1 JUMPI PUSH1 0x40 MLOAD PUSH3 0x461BCD PUSH1 0xE5 SHL DUP2 MSTORE PUSH1 0x20 PUSH1 0x4 DUP3 ADD MSTORE PUSH1 0x29 PUSH1 0x24 DUP3 ADD MSTORE PUSH32 0x4D75737420776169742034207965617273206265666F726520636C61696D696E PUSH1 0x44 DUP3 ADD MSTORE PUSH9 0x672070726F66697473 PUSH1 0xB8 SHL PUSH1 0x64 DUP3 ADD MSTORE PUSH1 0x84 ADD PUSH2 0x883 JUMP JUMPDEST PUSH1 0x0 PUSH2 0x13FC CALLER PUSH2 0x17D5 JUMP JUMPDEST SWAP1 POP PUSH1 0x0 DUP2 GT PUSH2 0x1444 JUMPI PUSH1 0x40 MLOAD PUSH3 0x461BCD PUSH1 0xE5 SHL DUP2 MSTORE PUSH1 0x20 PUSH1 0x4 DUP3 ADD MSTORE PUSH1 0x13 PUSH1 0x24 DUP3 ADD MSTORE PUSH19 0x4E6F2070726F6669747320746F20636C61696D PUSH1 0x68 SHL PUSH1 0x44 DUP3 ADD MSTORE PUSH1 0x64 ADD PUSH2 0x883 JUMP JUMPDEST CALLER PUSH1 0x0 DUP2 DUP2 MSTORE PUSH1 0x8 PUSH1 0x20 MSTORE PUSH1 0x40 DUP1 DUP3 KECCAK256 PUSH1 0x2 ADD DUP3 SWAP1 SSTORE MLOAD DUP4 ISZERO PUSH2 0x8FC MUL SWAP2 DUP5 SWAP2 SWAP1 DUP2 DUP2 DUP2 DUP6 DUP9 DUP9 CALL SWAP4 POP POP POP POP ISZERO DUP1 ISZERO PUSH2 0x1482 JUMPI RETURNDATASIZE PUSH1 0x0 DUP1 RETURNDATACOPY RETURNDATASIZE PUSH1 0x0 REVERT JUMPDEST POP PUSH1 0x40 MLOAD DUP2 DUP2 MSTORE CALLER SWAP1 PUSH32 0x2D1FBC422572E2217AC1C97143F481527C59DCBAF7FC6B9D1DF8A0E232653566 SWAP1 PUSH1 0x20 ADD PUSH1 0x40 MLOAD DUP1 SWAP2 SUB SWAP1 LOG2 POP JUMP JUMPDEST PUSH1 0x0 CALLER PUSH2 0x81B DUP2 DUP6 DUP6 PUSH2 0x1963 JUMP JUMPDEST PUSH2 0x14D1 PUSH2 0x188C JUMP JUMPDEST PUSH2 0x14D9 PUSH2 0x18B9 JUMP JUMPDEST PUSH1 0x0 CALLVALUE GT PUSH2 0x1520 JUMPI PUSH1 0x40 MLOAD PUSH3 0x461BCD PUSH1 0xE5 SHL DUP2 MSTORE PUSH1 0x20 PUSH1 0x4 DUP3 ADD MSTORE PUSH1 0x14 PUSH1 0x24 DUP3 ADD MSTORE PUSH20 0x4E6F2066756E647320666F72206275796261636B PUSH1 0x60 SHL PUSH1 0x44 DUP3 ADD MSTORE PUSH1 0x64 ADD PUSH2 0x883 JUMP JUMPDEST PUSH1 0x3 PUSH1 0x7 SLOAD PUSH1 0xFF AND PUSH1 0x3 DUP2 GT ISZERO PUSH2 0x1539 JUMPI PUSH2 0x1539 PUSH2 0x1F13 JUMP JUMPDEST EQ PUSH2 0x157B JUMPI PUSH1 0x40 MLOAD PUSH3 0x461BCD PUSH1 0xE5 SHL DUP2 MSTORE PUSH1 0x20 PUSH1 0x4 DUP3 ADD MSTORE PUSH1 0x12 PUSH1 0x24 DUP3 ADD MSTORE PUSH18 0x4275796261636B206E6F7420616374697665 PUSH1 0x70 SHL PUSH1 0x44 DUP3 ADD MSTORE PUSH1 0x64 ADD PUSH2 0x883 JUMP JUMPDEST PUSH1 0x0 PUSH2 0x1586 PUSH1 0x2 SLOAD SWAP1 JUMP JUMPDEST SWAP1 POP PUSH1 0x0 DUP2 GT PUSH2 0x15D0 JUMPI PUSH1 0x40 MLOAD PUSH3 0x461BCD PUSH1 0xE5 SHL DUP2 MSTORE PUSH1 0x20 PUSH1 0x4 DUP3 ADD MSTORE PUSH1 0x15 PUSH1 0x24 DUP3 ADD MSTORE PUSH21 0x4E6F20746F6B656E7320746F20627579206261636B PUSH1 0x58 SHL PUSH1 0x44 DUP3 ADD MSTORE PUSH1 0x64 ADD PUSH2 0x883 JUMP JUMPDEST PUSH1 0x0 PUSH2 0x15DB DUP3 PUSH2 0x1839 JUMP JUMPDEST SWAP1 POP DUP1 CALLVALUE LT ISZERO PUSH2 0x162D JUMPI PUSH1 0x40 MLOAD PUSH3 0x461BCD PUSH1 0xE5 SHL DUP2 MSTORE PUSH1 0x20 PUSH1 0x4 DUP3 ADD MSTORE PUSH1 0x1E PUSH1 0x24 DUP3 ADD MSTORE PUSH32 0x496E73756666696369656E742066756E647320666F72206275796261636B0000 PUSH1 0x44 DUP3 ADD MSTORE PUSH1 0x64 ADD PUSH2 0x883 JUMP JUMPDEST PUSH1 0x0 PUSH2 0x1639 DUP3 CALLVALUE PUSH2 0x2020 JUMP JUMPDEST SWAP1 POP PUSH1 0x0 DUP1 JUMPDEST PUSH1 0xA SLOAD DUP2 LT ISZERO PUSH2 0x16C0 JUMPI PUSH1 0x0 PUSH1 0xA DUP3 DUP2 SLOAD DUP2 LT PUSH2 0x165E JUMPI PUSH2 0x165E PUSH2 0x21D0 JUMP JUMPDEST PUSH1 0x0 SWAP2 DUP3 MSTORE PUSH1 0x20 DUP1 DUP4 KECCAK256 SWAP1 SWAP2 ADD SLOAD PUSH1 0x1 PUSH1 0x1 PUSH1 0xA0 SHL SUB AND DUP1 DUP4 MSTORE PUSH1 0x8 SWAP1 SWAP2 MSTORE PUSH1 0x40 SWAP1 SWAP2 KECCAK256 PUSH1 0x4 ADD SLOAD SWAP1 SWAP2 POP ISZERO PUSH2 0x16B7 JUMPI PUSH1 0x1 PUSH1 0x1 PUSH1 0xA0 SHL SUB DUP2 AND PUSH1 0x0 SWAP1 DUP2 MSTORE PUSH1 0x8 PUSH1 0x20 MSTORE PUSH1 0x40 SWAP1 KECCAK256 PUSH1 0x3 ADD SLOAD PUSH2 0x16B4 SWAP1 DUP5 PUSH2 0x1F9A JUMP JUMPDEST SWAP3 POP JUMPDEST POP PUSH1 0x1 ADD PUSH2 0x163F JUMP JUMPDEST POP PUSH1 0x0 JUMPDEST PUSH1 0xA SLOAD DUP2 LT ISZERO PUSH2 0x1791 JUMPI PUSH1 0x0 PUSH1 0xA DUP3 DUP2 SLOAD DUP2 LT PUSH2 0x16E3 JUMPI PUSH2 0x16E3 PUSH2 0x21D0 JUMP JUMPDEST PUSH1 0x0 SWAP2 DUP3 MSTORE PUSH1 0x20 DUP1 DUP4 KECCAK256 SWAP1 SWAP2 ADD SLOAD PUSH1 0x1 PUSH1 0x1 PUSH1 0xA0 SHL SUB AND DUP1 DUP4 MSTORE PUSH1 0x8 SWAP1 SWAP2 MSTORE PUSH1 0x40 SWAP1 SWAP2 KECCAK256 PUSH1 0x4 ADD SLOAD SWAP1 SWAP2 POP ISZERO PUSH2 0x1788 JUMPI PUSH1 0x1 PUSH1 0x1 PUSH1 0xA0 SHL SUB DUP2 AND PUSH1 0x0 SWAP1 DUP2 MSTORE PUSH1 0x8 PUSH1 0x20 MSTORE PUSH1 0x40 DUP2 KECCAK256 PUSH1 0x3 ADD SLOAD DUP5 SWAP1 PUSH2 0x173C SWAP1 DUP8 SWAP1 PUSH2 0x1FE7 JUMP JUMPDEST PUSH2 0x1746 SWAP2 SWAP1 PUSH2 0x1FFE JUMP JUMPDEST SWAP1 POP DUP1 ISZERO PUSH2 0x1786 JUMPI PUSH1 0x40 MLOAD PUSH1 0x1 PUSH1 0x1 PUSH1 0xA0 SHL SUB DUP4 AND SWAP1 DUP3 ISZERO PUSH2 0x8FC MUL SWAP1 DUP4 SWAP1 PUSH1 0x0 DUP2 DUP2 DUP2 DUP6 DUP9 DUP9 CALL SWAP4 POP POP POP POP ISZERO DUP1 ISZERO PUSH2 0x1784 JUMPI RETURNDATASIZE PUSH1 0x0 DUP1 RETURNDATACOPY RETURNDATASIZE PUSH1 0x0 REVERT JUMPDEST POP JUMPDEST POP JUMPDEST POP PUSH1 0x1 ADD PUSH2 0x16C4 JUMP JUMPDEST POP PUSH2 0x179C ADDRESS DUP6 PUSH2 0x1B10 JUMP JUMPDEST PUSH1 0x40 MLOAD DUP4 DUP2 MSTORE PUSH32 0xD2C5A6B66FBD4C28346666274DD95B77FD31D5C730DEB119439B2B5482DEAFC9 SWAP1 PUSH1 0x20 ADD PUSH1 0x40 MLOAD DUP1 SWAP2 SUB SWAP1 LOG1 POP POP POP POP JUMP JUMPDEST PUSH1 0x1 PUSH1 0x1 PUSH1 0xA0 SHL SUB DUP2 AND PUSH1 0x0 SWAP1 DUP2 MSTORE PUSH1 0x8 PUSH1 0x20 MSTORE PUSH1 0x40 DUP2 KECCAK256 PUSH1 0x4 ADD SLOAD DUP2 SUB PUSH2 0x17FF JUMPI POP PUSH1 0x0 SWAP2 SWAP1 POP JUMP JUMPDEST PUSH1 0x2 SLOAD PUSH1 0x1 PUSH1 0x1 PUSH1 0xA0 SHL SUB DUP4 AND PUSH1 0x0 SWAP1 DUP2 MSTORE PUSH1 0x8 PUSH1 0x20 MSTORE PUSH1 0x40 SWAP1 KECCAK256 PUSH1 0x4 DUP2 ADD SLOAD PUSH1 0x2 SWAP1 SWAP2 ADD SLOAD PUSH2 0x182F SWAP2 SWAP1 PUSH2 0x1FE7 JUMP JUMPDEST PUSH2 0x821 SWAP2 SWAP1 PUSH2 0x1FFE JUMP JUMPDEST PUSH1 0x0 PUSH2 0x821 DUP3 PUSH2 0xD70 JUMP JUMPDEST PUSH2 0x184C PUSH2 0x188C JUMP JUMPDEST PUSH1 0x1 PUSH1 0x1 PUSH1 0xA0 SHL SUB DUP2 AND PUSH2 0x1876 JUMPI PUSH1 0x40 MLOAD PUSH4 0x1E4FBDF7 PUSH1 0xE0 SHL DUP2 MSTORE PUSH1 0x0 PUSH1 0x4 DUP3 ADD MSTORE PUSH1 0x24 ADD PUSH2 0x883 JUMP JUMPDEST PUSH2 0xD5B DUP2 PUSH2 0x1A7B JUMP JUMPDEST PUSH2 0x11DD DUP4 DUP4 DUP4 PUSH1 0x1 PUSH2 0x1B46 JUMP JUMPDEST PUSH1 0x5 SLOAD PUSH1 0x1 PUSH1 0x1 PUSH1 0xA0 SHL SUB AND CALLER EQ PUSH2 0xD6E JUMPI PUSH1 0x40 MLOAD PUSH4 0x118CDAA7 PUSH1 0xE0 SHL DUP2 MSTORE CALLER PUSH1 0x4 DUP3 ADD MSTORE PUSH1 0x24 ADD PUSH2 0x883 JUMP JUMPDEST PUSH1 0x5 SLOAD PUSH1 0x1 PUSH1 0xA0 SHL SWAP1 DIV PUSH1 0xFF AND ISZERO PUSH2 0xD6E JUMPI PUSH1 0x40 MLOAD PUSH4 0xD93C0665 PUSH1 0xE0 SHL DUP2 MSTORE PUSH1 0x4 ADD PUSH1 0x40 MLOAD DUP1 SWAP2 SUB SWAP1 REVERT JUMPDEST PUSH1 0x1 PUSH1 0x1 PUSH1 0xA0 SHL SUB DUP4 DUP2 AND PUSH1 0x0 SWAP1 DUP2 MSTORE PUSH1 0x1 PUSH1 0x20 SWAP1 DUP2 MSTORE PUSH1 0x40 DUP1 DUP4 KECCAK256 SWAP4 DUP7 AND DUP4 MSTORE SWAP3 SWAP1 MSTORE KECCAK256 SLOAD PUSH1 0x0 NOT DUP2 LT ISZERO PUSH2 0x195D JUMPI DUP2 DUP2 LT ISZERO PUSH2 0x194E JUMPI PUSH1 0x40 MLOAD PUSH4 0x7DC7A0D9 PUSH1 0xE1 SHL DUP2 MSTORE PUSH1 0x1 PUSH1 0x1 PUSH1 0xA0 SHL SUB DUP5 AND PUSH1 0x4 DUP3 ADD MSTORE PUSH1 0x24 DUP2 ADD DUP3 SWAP1 MSTORE PUSH1 0x44 DUP2 ADD DUP4 SWAP1 MSTORE PUSH1 0x64 ADD PUSH2 0x883 JUMP JUMPDEST PUSH2 0x195D DUP5 DUP5 DUP5 DUP5 SUB PUSH1 0x0 PUSH2 0x1B46 JUMP JUMPDEST POP POP POP POP JUMP JUMPDEST PUSH1 0x1 PUSH1 0x1 PUSH1 0xA0 SHL SUB DUP4 AND PUSH2 0x198D JUMPI PUSH1 0x40 MLOAD PUSH4 0x4B637E8F PUSH1 0xE1 SHL DUP2 MSTORE PUSH1 0x0 PUSH1 0x4 DUP3 ADD MSTORE PUSH1 0x24 ADD PUSH2 0x883 JUMP JUMPDEST PUSH1 0x1 PUSH1 0x1 PUSH1 0xA0 SHL SUB DUP3 AND PUSH2 0x19B7 JUMPI PUSH1 0x40 MLOAD PUSH4 0xEC442F05 PUSH1 0xE0 SHL DUP2 MSTORE PUSH1 0x0 PUSH1 0x4 DUP3 ADD MSTORE PUSH1 0x24 ADD PUSH2 0x883 JUMP JUMPDEST PUSH2 0x11DD DUP4 DUP4 DUP4 PUSH2 0x1C1B JUMP JUMPDEST PUSH1 0x2 PUSH1 0x6 SLOAD SUB PUSH2 0x19E5 JUMPI PUSH1 0x40 MLOAD PUSH4 0x3EE5AEB5 PUSH1 0xE0 SHL DUP2 MSTORE PUSH1 0x4 ADD PUSH1 0x40 MLOAD DUP1 SWAP2 SUB SWAP1 REVERT JUMPDEST PUSH1 0x2 PUSH1 0x6 SSTORE JUMP JUMPDEST PUSH1 0x1 PUSH1 0x1 PUSH1 0xA0 SHL SUB DUP3 AND PUSH2 0x1A16 JUMPI PUSH1 0x40 MLOAD PUSH4 0xEC442F05 PUSH1 0xE0 SHL DUP2 MSTORE PUSH1 0x0 PUSH1 0x4 DUP3 ADD MSTORE PUSH1 0x24 ADD PUSH2 0x883 JUMP JUMPDEST PUSH2 0x1A22 PUSH1 0x0 DUP4 DUP4 PUSH2 0x1C1B JUMP JUMPDEST POP POP JUMP JUMPDEST PUSH2 0x1A2E PUSH2 0x1D45 JUMP JUMPDEST PUSH1 0x5 DUP1 SLOAD PUSH1 0xFF PUSH1 0xA0 SHL NOT AND SWAP1 SSTORE PUSH32 0x5DB9EE0A495BF2E6FF9C91A7834C1BA4FDD244A5E8AA4E537BD38AEAE4B073AA CALLER JUMPDEST PUSH1 0x40 MLOAD PUSH1 0x1 PUSH1 0x1 PUSH1 0xA0 SHL SUB SWAP1 SWAP2 AND DUP2 MSTORE PUSH1 0x20 ADD PUSH1 0x40 MLOAD DUP1 SWAP2 SUB SWAP1 LOG1 JUMP JUMPDEST PUSH1 0x5 DUP1 SLOAD PUSH1 0x1 PUSH1 0x1 PUSH1 0xA0 SHL SUB DUP4 DUP2 AND PUSH1 0x1 PUSH1 0x1 PUSH1 0xA0 SHL SUB NOT DUP4 AND DUP2 OR SWAP1 SWAP4 SSTORE PUSH1 0x40 MLOAD SWAP2 AND SWAP2 SWAP1 DUP3 SWAP1 PUSH32 0x8BE0079C531659141344CD1FD0A4F28419497F9722A3DAAFE3B4186F6B6457E0 SWAP1 PUSH1 0x0 SWAP1 LOG3 POP POP JUMP JUMPDEST PUSH2 0x1AD5 PUSH2 0x18B9 JUMP JUMPDEST PUSH1 0x5 DUP1 SLOAD PUSH1 0xFF PUSH1 0xA0 SHL NOT AND PUSH1 0x1 PUSH1 0xA0 SHL OR SWAP1 SSTORE PUSH32 0x62E78CEA01BEE320CD4E420270B5EA74000D11B0C9F74754EBDBFC544B05A258 PUSH2 0x1A5E CALLER SWAP1 JUMP JUMPDEST PUSH1 0x1 PUSH1 0x1 PUSH1 0xA0 SHL SUB DUP3 AND PUSH2 0x1B3A JUMPI PUSH1 0x40 MLOAD PUSH4 0x4B637E8F PUSH1 0xE1 SHL DUP2 MSTORE PUSH1 0x0 PUSH1 0x4 DUP3 ADD MSTORE PUSH1 0x24 ADD PUSH2 0x883 JUMP JUMPDEST PUSH2 0x1A22 DUP3 PUSH1 0x0 DUP4 PUSH2 0x1C1B JUMP JUMPDEST PUSH1 0x1 PUSH1 0x1 PUSH1 0xA0 SHL SUB DUP5 AND PUSH2 0x1B70 JUMPI PUSH1 0x40 MLOAD PUSH4 0xE602DF05 PUSH1 0xE0 SHL DUP2 MSTORE PUSH1 0x0 PUSH1 0x4 DUP3 ADD MSTORE PUSH1 0x24 ADD PUSH2 0x883 JUMP JUMPDEST PUSH1 0x1 PUSH1 0x1 PUSH1 0xA0 SHL SUB DUP4 AND PUSH2 0x1B9A JUMPI PUSH1 0x40 MLOAD PUSH4 0x4A1406B1 PUSH1 0xE1 SHL DUP2 MSTORE PUSH1 0x0 PUSH1 0x4 DUP3 ADD MSTORE PUSH1 0x24 ADD PUSH2 0x883 JUMP JUMPDEST PUSH1 0x1 PUSH1 0x1 PUSH1 0xA0 SHL SUB DUP1 DUP6 AND PUSH1 0x0 SWAP1 DUP2 MSTORE PUSH1 0x1 PUSH1 0x20 SWAP1 DUP2 MSTORE PUSH1 0x40 DUP1 DUP4 KECCAK256 SWAP4 DUP8 AND DUP4 MSTORE SWAP3 SWAP1 MSTORE KECCAK256 DUP3 SWAP1 SSTORE DUP1 ISZERO PUSH2 0x195D JUMPI DUP3 PUSH1 0x1 PUSH1 0x1 PUSH1 0xA0 SHL SUB AND DUP5 PUSH1 0x1 PUSH1 0x1 PUSH1 0xA0 SHL SUB AND PUSH32 0x8C5BE1E5EBEC7D5BD14F71427D1E84F3DD0314C0F7B2291E5B200AC8C7C3B925 DUP5 PUSH1 0x40 MLOAD PUSH2 0x1C0D SWAP2 DUP2 MSTORE PUSH1 0x20 ADD SWAP1 JUMP JUMPDEST PUSH1 0x40 MLOAD DUP1 SWAP2 SUB SWAP1 LOG3 POP POP POP POP JUMP JUMPDEST PUSH1 0x1 PUSH1 0x1 PUSH1 0xA0 SHL SUB DUP4 AND PUSH2 0x1C46 JUMPI DUP1 PUSH1 0x2 PUSH1 0x0 DUP3 DUP3 SLOAD PUSH2 0x1C3B SWAP2 SWAP1 PUSH2 0x1F9A JUMP JUMPDEST SWAP1 SWAP2 SSTORE POP PUSH2 0x1CB8 SWAP1 POP JUMP JUMPDEST PUSH1 0x1 PUSH1 0x1 PUSH1 0xA0 SHL SUB DUP4 AND PUSH1 0x0 SWAP1 DUP2 MSTORE PUSH1 0x20 DUP2 SWAP1 MSTORE PUSH1 0x40 SWAP1 KECCAK256 SLOAD DUP2 DUP2 LT ISZERO PUSH2 0x1C99 JUMPI PUSH1 0x40 MLOAD PUSH4 0x391434E3 PUSH1 0xE2 SHL DUP2 MSTORE PUSH1 0x1 PUSH1 0x1 PUSH1 0xA0 SHL SUB DUP6 AND PUSH1 0x4 DUP3 ADD MSTORE PUSH1 0x24 DUP2 ADD DUP3 SWAP1 MSTORE PUSH1 0x44 DUP2 ADD DUP4 SWAP1 MSTORE PUSH1 0x64 ADD PUSH2 0x883 JUMP JUMPDEST PUSH1 0x1 PUSH1 0x1 PUSH1 0xA0 SHL SUB DUP5 AND PUSH1 0x0 SWAP1 DUP2 MSTORE PUSH1 0x20 DUP2 SWAP1 MSTORE PUSH1 0x40 SWAP1 KECCAK256 SWAP1 DUP3 SWAP1 SUB SWAP1 SSTORE JUMPDEST PUSH1 0x1 PUSH1 0x1 PUSH1 0xA0 SHL SUB DUP3 AND PUSH2 0x1CD4 JUMPI PUSH1 0x2 DUP1 SLOAD DUP3 SWAP1 SUB SWAP1 SSTORE PUSH2 0x1CF3 JUMP JUMPDEST PUSH1 0x1 PUSH1 0x1 PUSH1 0xA0 SHL SUB DUP3 AND PUSH1 0x0 SWAP1 DUP2 MSTORE PUSH1 0x20 DUP2 SWAP1 MSTORE PUSH1 0x40 SWAP1 KECCAK256 DUP1 SLOAD DUP3 ADD SWAP1 SSTORE JUMPDEST DUP2 PUSH1 0x1 PUSH1 0x1 PUSH1 0xA0 SHL SUB AND DUP4 PUSH1 0x1 PUSH1 0x1 PUSH1 0xA0 SHL SUB AND PUSH32 0xDDF252AD1BE2C89B69C2B068FC378DAA952BA7F163C4A11628F55A4DF523B3EF DUP4 PUSH1 0x40 MLOAD PUSH2 0x1D38 SWAP2 DUP2 MSTORE PUSH1 0x20 ADD SWAP1 JUMP JUMPDEST PUSH1 0x40 MLOAD DUP1 SWAP2 SUB SWAP1 LOG3 POP POP POP JUMP JUMPDEST PUSH1 0x5 SLOAD PUSH1 0x1 PUSH1 0xA0 SHL SWAP1 DIV PUSH1 0xFF AND PUSH2 0xD6E JUMPI PUSH1 0x40 MLOAD PUSH4 0x8DFC202B PUSH1 0xE0 SHL DUP2 MSTORE PUSH1 0x4 ADD PUSH1 0x40 MLOAD DUP1 SWAP2 SUB SWAP1 REVERT JUMPDEST DUP1 CALLDATALOAD PUSH1 0x1 PUSH1 0x1 PUSH1 0xA0 SHL SUB DUP2 AND DUP2 EQ PUSH2 0x1D86 JUMPI PUSH1 0x0 DUP1 REVERT JUMPDEST SWAP2 SWAP1 POP JUMP JUMPDEST PUSH1 0x0 PUSH1 0x20 DUP3 DUP5 SUB SLT ISZERO PUSH2 0x1D9D JUMPI PUSH1 0x0 DUP1 REVERT JUMPDEST PUSH2 0x1DA6 DUP3 PUSH2 0x1D6F JUMP JUMPDEST SWAP4 SWAP3 POP POP POP JUMP JUMPDEST PUSH1 0x20 DUP2 MSTORE PUSH1 0x0 DUP3 MLOAD DUP1 PUSH1 0x20 DUP5 ADD MSTORE PUSH1 0x0 JUMPDEST DUP2 DUP2 LT ISZERO PUSH2 0x1DDB JUMPI PUSH1 0x20 DUP2 DUP7 ADD DUP2 ADD MLOAD PUSH1 0x40 DUP7 DUP5 ADD ADD MSTORE ADD PUSH2 0x1DBE JUMP JUMPDEST POP PUSH1 0x0 PUSH1 0x40 DUP3 DUP6 ADD ADD MSTORE PUSH1 0x40 PUSH1 0x1F NOT PUSH1 0x1F DUP4 ADD AND DUP5 ADD ADD SWAP2 POP POP SWAP3 SWAP2 POP POP JUMP JUMPDEST PUSH1 0x0 DUP1 PUSH1 0x40 DUP4 DUP6 SUB SLT ISZERO PUSH2 0x1E0E JUMPI PUSH1 0x0 DUP1 REVERT JUMPDEST PUSH2 0x1E17 DUP4 PUSH2 0x1D6F JUMP JUMPDEST SWAP5 PUSH1 0x20 SWAP4 SWAP1 SWAP4 ADD CALLDATALOAD SWAP4 POP POP POP JUMP JUMPDEST PUSH1 0x0 DUP1 PUSH1 0x0 PUSH1 0x60 DUP5 DUP7 SUB SLT ISZERO PUSH2 0x1E3A JUMPI PUSH1 0x0 DUP1 REVERT JUMPDEST PUSH2 0x1E43 DUP5 PUSH2 0x1D6F JUMP JUMPDEST SWAP3 POP PUSH2 0x1E51 PUSH1 0x20 DUP6 ADD PUSH2 0x1D6F JUMP JUMPDEST SWAP3 SWAP6 SWAP3 SWAP5 POP POP POP PUSH1 0x40 SWAP2 SWAP1 SWAP2 ADD CALLDATALOAD SWAP1 JUMP JUMPDEST PUSH1 0x0 PUSH1 0x20 DUP3 DUP5 SUB SLT ISZERO PUSH2 0x1E74 JUMPI PUSH1 0x0 DUP1 REVERT JUMPDEST POP CALLDATALOAD SWAP2 SWAP1 POP JUMP JUMPDEST PUSH1 0x0 DUP1 PUSH1 0x20 DUP4 DUP6 SUB SLT ISZERO PUSH2 0x1E8E JUMPI PUSH1 0x0 DUP1 REVERT JUMPDEST DUP3 CALLDATALOAD PUSH8 0xFFFFFFFFFFFFFFFF DUP2 GT ISZERO PUSH2 0x1EA5 JUMPI PUSH1 0x0 DUP1 REVERT JUMPDEST DUP4 ADD PUSH1 0x1F DUP2 ADD DUP6 SGT PUSH2 0x1EB6 JUMPI PUSH1 0x0 DUP1 REVERT JUMPDEST DUP1 CALLDATALOAD PUSH8 0xFFFFFFFFFFFFFFFF DUP2 GT ISZERO PUSH2 0x1ECD JUMPI PUSH1 0x0 DUP1 REVERT JUMPDEST DUP6 PUSH1 0x20 DUP3 PUSH1 0x5 SHL DUP5 ADD ADD GT ISZERO PUSH2 0x1EE2 JUMPI PUSH1 0x0 DUP1 REVERT JUMPDEST PUSH1 0x20 SWAP2 SWAP1 SWAP2 ADD SWAP6 SWAP1 SWAP5 POP SWAP3 POP POP POP JUMP JUMPDEST PUSH1 0x0 PUSH1 0x20 DUP3 DUP5 SUB SLT ISZERO PUSH2 0x1F04 JUMPI PUSH1 0x0 DUP1 REVERT JUMPDEST DUP2 CALLDATALOAD PUSH1 0x4 DUP2 LT PUSH2 0x1DA6 JUMPI PUSH1 0x0 DUP1 REVERT JUMPDEST PUSH4 0x4E487B71 PUSH1 0xE0 SHL PUSH1 0x0 MSTORE PUSH1 0x21 PUSH1 0x4 MSTORE PUSH1 0x24 PUSH1 0x0 REVERT JUMPDEST PUSH1 0x20 DUP2 ADD PUSH1 0x4 DUP4 LT PUSH2 0x1F4B JUMPI PUSH4 0x4E487B71 PUSH1 0xE0 SHL PUSH1 0x0 MSTORE PUSH1 0x21 PUSH1 0x4 MSTORE PUSH1 0x24 PUSH1 0x0 REVERT JUMPDEST SWAP2 SWAP1 MSTORE SWAP1 JUMP JUMPDEST PUSH1 0x0 DUP1 PUSH1 0x40 DUP4 DUP6 SUB SLT ISZERO PUSH2 0x1F64 JUMPI PUSH1 0x0 DUP1 REVERT JUMPDEST PUSH2 0x1F6D DUP4 PUSH2 0x1D6F JUMP JUMPDEST SWAP2 POP PUSH2 0x1F7B PUSH1 0x20 DUP5 ADD PUSH2 0x1D6F JUMP JUMPDEST SWAP1 POP SWAP3 POP SWAP3 SWAP1 POP JUMP JUMPDEST PUSH4 0x4E487B71 PUSH1 0xE0 SHL PUSH1 0x0 MSTORE PUSH1 0x11 PUSH1 0x4 MSTORE PUSH1 0x24 PUSH1 0x0 REVERT JUMPDEST DUP1 DUP3 ADD DUP1 DUP3 GT ISZERO PUSH2 0x821 JUMPI PUSH2 0x821 PUSH2 0x1F84 JUMP JUMPDEST PUSH1 0x1 DUP2 DUP2 SHR SWAP1 DUP3 AND DUP1 PUSH2 0x1FC1 JUMPI PUSH1 0x7F DUP3 AND SWAP2 POP JUMPDEST PUSH1 0x20 DUP3 LT DUP2 SUB PUSH2 0x1FE1 JUMPI PUSH4 0x4E487B71 PUSH1 0xE0 SHL PUSH1 0x0 MSTORE PUSH1 0x22 PUSH1 0x4 MSTORE PUSH1 0x24 PUSH1 0x0 REVERT JUMPDEST POP SWAP2 SWAP1 POP JUMP JUMPDEST DUP1 DUP3 MUL DUP2 ISZERO DUP3 DUP3 DIV DUP5 EQ OR PUSH2 0x821 JUMPI PUSH2 0x821 PUSH2 0x1F84 JUMP JUMPDEST PUSH1 0x0 DUP3 PUSH2 0x201B JUMPI PUSH4 0x4E487B71 PUSH1 0xE0 SHL PUSH1 0x0 MSTORE PUSH1 0x12 PUSH1 0x4 MSTORE PUSH1 0x24 PUSH1 0x0 REVERT JUMPDEST POP DIV SWAP1 JUMP JUMPDEST DUP2 DUP2 SUB DUP2 DUP2 GT ISZERO PUSH2 0x821 JUMPI PUSH2 0x821 PUSH2 0x1F84 JUMP JUMPDEST DUP1 MLOAD PUSH10 0xFFFFFFFFFFFFFFFFFFFF DUP2 AND DUP2 EQ PUSH2 0x1D86 JUMPI PUSH1 0x0 DUP1 REVERT JUMPDEST PUSH1 0x0 DUP1 PUSH1 0x0 DUP1 PUSH1 0x0 PUSH1 0xA0 DUP7 DUP9 SUB SLT ISZERO PUSH2 0x2065 JUMPI PUSH1 0x0 DUP1 REVERT JUMPDEST PUSH2 0x206E DUP7 PUSH2 0x2033 JUMP JUMPDEST PUSH1 0x20 DUP8 ADD MLOAD PUSH1 0x40 DUP9 ADD MLOAD PUSH1 0x60 DUP10 ADD MLOAD SWAP3 SWAP8 POP SWAP1 SWAP6 POP SWAP4 POP SWAP2 POP PUSH2 0x2093 PUSH1 0x80 DUP8 ADD PUSH2 0x2033 JUMP JUMPDEST SWAP1 POP SWAP3 SWAP6 POP SWAP3 SWAP6 SWAP1 SWAP4 POP JUMP JUMPDEST PUSH1 0x1 DUP2 JUMPDEST PUSH1 0x1 DUP5 GT ISZERO PUSH2 0x20DA JUMPI DUP1 DUP6 DIV DUP2 GT ISZERO PUSH2 0x20BE JUMPI PUSH2 0x20BE PUSH2 0x1F84 JUMP JUMPDEST PUSH1 0x1 DUP5 AND ISZERO PUSH2 0x20CC JUMPI SWAP1 DUP2 MUL SWAP1 JUMPDEST PUSH1 0x1 SWAP4 SWAP1 SWAP4 SHR SWAP3 DUP1 MUL PUSH2 0x20A3 JUMP JUMPDEST SWAP4 POP SWAP4 SWAP2 POP POP JUMP JUMPDEST PUSH1 0x0 DUP3 PUSH2 0x20F1 JUMPI POP PUSH1 0x1 PUSH2 0x821 JUMP JUMPDEST DUP2 PUSH2 0x20FE JUMPI POP PUSH1 0x0 PUSH2 0x821 JUMP JUMPDEST DUP2 PUSH1 0x1 DUP2 EQ PUSH2 0x2114 JUMPI PUSH1 0x2 DUP2 EQ PUSH2 0x211E JUMPI PUSH2 0x213A JUMP JUMPDEST PUSH1 0x1 SWAP2 POP POP PUSH2 0x821 JUMP JUMPDEST PUSH1 0xFF DUP5 GT ISZERO PUSH2 0x212F JUMPI PUSH2 0x212F PUSH2 0x1F84 JUMP JUMPDEST POP POP PUSH1 0x1 DUP3 SHL PUSH2 0x821 JUMP JUMPDEST POP PUSH1 0x20 DUP4 LT PUSH2 0x133 DUP4 LT AND PUSH1 0x4E DUP5 LT PUSH1 0xB DUP5 LT AND OR ISZERO PUSH2 0x215D JUMPI POP DUP2 DUP2 EXP PUSH2 0x821 JUMP JUMPDEST PUSH2 0x216A PUSH1 0x0 NOT DUP5 DUP5 PUSH2 0x209F JUMP JUMPDEST DUP1 PUSH1 0x0 NOT DIV DUP3 GT ISZERO PUSH2 0x217E JUMPI PUSH2 0x217E PUSH2 0x1F84 JUMP JUMPDEST MUL SWAP4 SWAP3 POP POP POP JUMP JUMPDEST PUSH1 0x0 PUSH2 0x1DA6 PUSH1 0xFF DUP5 AND DUP4 PUSH2 0x20E2 JUMP JUMPDEST PUSH1 0x0 PUSH1 0x20 DUP3 DUP5 SUB SLT ISZERO PUSH2 0x21A7 JUMPI PUSH1 0x0 DUP1 REVERT JUMPDEST POP MLOAD SWAP2 SWAP1 POP JUMP JUMPDEST PUSH1 0x0 PUSH1 0x20 DUP3 DUP5 SUB SLT ISZERO PUSH2 0x21C0 JUMPI PUSH1 0x0 DUP1 REVERT JUMPDEST DUP2 MLOAD DUP1 ISZERO ISZERO DUP2 EQ PUSH2 0x1DA6 JUMPI PUSH1 0x0 DUP1 REVERT JUMPDEST PUSH4 0x4E487B71 PUSH1 0xE0 SHL PUSH1 0x0 MSTORE PUSH1 0x32 PUSH1 0x4 MSTORE PUSH1 0x24 PUSH1 0x0 REVERT INVALID LOG2 PUSH5 0x6970667358 0x22 SLT KECCAK256 0xD0 NUMBER XOR 0x24 0xCB 0xAB PUSH24 0x59A983ADFAFF07899C34A64526E2CEA4DC0B70BEB21FAD45 SWAP7 PUSH5 0x736F6C6343 STOP ADDMOD SHR STOP CALLER "
        },
        "methodIdentifiers": {
          "COMPANY_RATIO()": "d101d08b",
          "PLATFORM_RATIO()": "90e49755",
          "PROFIT_CLAIM_PERIOD()": "4d4b8c24",
          "TOKEN_HOLDERS_RATIO()": "a93ad247",
          "TOKEN_PRICE_EUR()": "406d7054",
          "TOTAL_SUPPLY()": "902d55a5",
          "addToWhitelist(address[])": "7f649783",
          "allowance(address,address)": "dd62ed3e",
          "approve(address,uint256)": "095ea7b3",
          "balanceOf(address)": "70a08231",
          "buyTokens(uint256)": "3610724e",
          "buybackByCompany()": "c3967ca5",
          "calculateInvestorProfitShare(address)": "c8372a12",
          "claimProfits()": "9df51b89",
          "decimals()": "313ce567",
          "distributeProfits()": "1fee5ccd",
          "emergencyWithdraw(address)": "6ff1c9bc",
          "getBuybackPriceInPOL(uint256)": "eab8a0eb",
          "getCurrentPriceInPOL(uint256)": "699901f8",
          "getInvestmentSummary(address)": "0434c8c2",
          "investors(address)": "6f7bc9be",
          "name()": "06fdde03",
          "owner()": "8da5cb5b",
          "pause()": "8456cb59",
          "paused()": "5c975abb",
          "platformWallet()": "fa2af9da",
          "renounceOwnership()": "715018a6",
          "symbol()": "95d89b41",
          "totalDistributedProfits()": "177df163",
          "totalSupply()": "18160ddd",
          "transfer(address,uint256)": "a9059cbb",
          "transferFrom(address,address,uint256)": "23b872dd",
          "transferOwnership(address)": "f2fde38b",
          "unpause()": "3f4ba83a",
          "updateWorkflowStatus(uint8)": "83a9c806",
          "workflowStatus()": "a1edffa2"
        }
      }
    }
  }
}